:100000000C9440000C9464010C9468000C946800FB
:100010000C9468000C9468000C9468000C946800C0
:100020000C9468000C9422010C9468000C946800F5
:100030000C9468000C9468000C9468000C946800A0
:100040000C9468000C9468000C9468000C94680090
:100050000C9468000C9468000C9468000C94680080
:100060000C9468000C9468000C9468000C94680070
:100070000C9468000C9468000C94680076198E1932
:1000800011241FBECFEFD8E0DEBFCDBF11E0A0E04E
:10009000B1E0EEE9F5E302C005900D92A03AB10798
:1000A000D9F721E0A0EAB1E001C01D92A23BB2075E
:1000B000E1F710E0CFE3D0E004C02197FE010E94F9
:1000C000BC1ACE33D107C9F70E944C190C94C21A3E
:1000D0000C94000010927C0086E880937A000895CA
:1000E00010927A00089580917C00807E80937C003D
:1000F00080917C006770682B60937C0080917A000F
:10010000806480937A0080917A0084FFFCCF809194
:100110007A00806180937A00209178009091790034
:10012000892F90E0982F8827820F911D08952FEF37
:1001300030E0FC013183208380EF8AB9109289007E
:100140001092880010928B0010928A00E0E8F0E094
:100150008081816A8083E1E8F0E080818260808331
:10016000109282000895CF93DF936F3F710510F0D6
:100170006EEF70E0EA014F3F510510F0CEEFD0E096
:10018000223009F449C038F4222399F0213059F182
:10019000DF91CF910895233009F44BC02430C1F78B
:1001A00080E48BB980E28BB91092890010928800AC
:1001B0002EC080E48BB980E28BB970938900609384
:1001C0008800BE0190E080E00E94C11927ED33EA6B
:1001D00040E75FE30E94271A0E94921970938B00F8
:1001E00060938A00D5CF8FEB8BB98FED8BB990E000
:1001F00080E00E94C1192FE135E84BE65FE30E94E1
:10020000271A0E9492197093890060938800D093F6
:100210008B00C0938A00BCCF80E48BB980E28BB99D
:10022000109289001092880010928B0010928A0020
:10023000AFCF80E48BB980E28BB970938900609373
:100240008800F2CF1F920F920FB60F9211242F93B6
:100250003F934F935F936F937F938F939F93AF934E
:10026000BF93EF93FF938AEA91E00E9412178AEA04
:1002700091E00E940C17882301F1809100018823EE
:10028000E1F06AEF70E08AEA91E00E94F016809156
:100290000001815080930001FF91EF91BF91AF91D8
:1002A0009F918F917F916F915F914F913F912F918E
:1002B0000F900FBE0F901F90189586E98093000154
:1002C00081E08093A001E8CF1F920F920FB60F92AA
:1002D00011242F933F934F935F936F937F938F934B
:1002E0009F93AF93BF93EF93FF934A9B4BC08FE5D0
:1002F0009AEE0197F1F700C000004A9B43C04AE024
:1003000050E06DE270E08CEA91E00E94C5169FE734
:1003100028E381E0915020408040E1F700C00000D8
:100320008CEA91E00E94E9168AEA91E00E940717A0
:1003300080910101882371F08091A101843051F4F2
:100340006AEF70E08AEA91E00E94F01681E0809303
:10035000A10118C080910101882321F08091A101A1
:10036000843059F58091A30181111EC08091A301B1
:1003700081111FC08091A201811129C08091A20129
:1003800081112CC0E09AFF91EF91BF91AF919F91A5
:100390008F917F916F915F914F913F912F910F902E
:1003A0000FBE0F901F9018958091A1018930F1F632
:1003B000C7CF8091A1018930E9F26AEF70E08AEA43
:1003C00091E00E94F0168091A1018F5FC0CF8091D3
:1003D000A101813099F61092A101D4CF8091A101A1
:1003E000882389F3CFCF11B88FEF84B987B980EF15
:1003F0008AB9089560E081EB91E00E94730021E0EA
:100400008C3B924008F020E0822F089561E081EB60
:1004100091E00E94730021E08A3C934008F020E0C4
:10042000822F089562E081EB91E00E94730021E049
:100430008235934008F020E0822F089563E081EB3D
:1004400091E00E94730021E08235934008F020E0A3
:10045000822F089564E081EB91E00E94730021E017
:100460008032934008F020E0822F08950E94FA0124
:10047000882311F081E088B90E94FA01811101C03E
:1004800018B80E940602882311F082E088B90E9401
:100490000602811101C018B80E941202882311F0CF
:1004A00084E088B90E941202811101C018B80E942C
:1004B0001E02882311F088E088B90E941E02811173
:1004C00001C018B80E942A02882311F080E188B97F
:1004D0000E942A02811101C018B8089520E04CE85A
:1004E00050E06CE870E08DEA91E00E94B3002FEFDD
:1004F00088EF95E1215080409040E1F700C0000076
:1005000020E050E040E062E870E08DEA91E00E9477
:10051000B3002FEF82E597E0215080409040E1F753
:1005200000C0000020E050E040E06EE670E08DEAA0
:1005300091E00E94B3000E94FA018111F3CF0E9462
:1005400006028111EFCF0E941202882359F30E9404
:100550001E028111E7CF0E942A028111E3CF22E01F
:1005600050E040E070E060E08DEA91E00E94B3006E
:100570002FEF84E39CE0215080409040E1F700C0E1
:100580000000089520E04CE850E06CE870E08DEA4F
:1005900091E00E94B3002FEF88EF95E12150804059
:1005A0009040E1F700C0000020E050E040E068E744
:1005B00070E08DEA91E00E94B3000E94FA0181117F
:1005C000F3CF0E9406028111EFCF0E94120288230E
:1005D00059F30E941E028111E7CF0E942A02811165
:1005E000E3CF22E050E040E070E060E08DEA91E08F
:1005F0000E94B3002FEF84E39CE0215080409040A4
:10060000E1F700C00000089520E050E040E068E716
:1006100070E08DEA91E00E94B3000E94FA0181111E
:10062000F3CF0E9406028111EFCF0E9412028823AD
:1006300059F30E941E028111E7CF0E942A02811104
:10064000E3CF22E050E040E070E060E08DEA91E02E
:100650000E94B3002FEF84E39CE021508040904043
:10066000E1F700C0000008950E94FA01811114C052
:100670000E940602811110C00E941202882361F0BC
:100680000E941E02811108C00E942A0220E04EE64C
:1006900050E0882309F449C00E94FA01882391F1AF
:1006A0000E94FA01811147C00E94FA01811110C015
:1006B0000E940602882361F00E941202882341F002
:1006C0000E941E02811104C00E942A02882351F157
:1006D0000E94FA01811140C00E94060281113CC0B3
:1006E0000E941202811138C00E941E028823A1F1CB
:1006F0000E942A02811130C020E04EE650E060E501
:1007000070E015C00E940602882351F20E94120276
:100710008111C6CF0E941E028111C2CF0E942A02FF
:100720008111BECF20E040E550E06EE670E08DEA3A
:1007300091E00C94B3000E9406028111B5CF0E9493
:1007400012028111B1CF0E941E028111ADCF0E9411
:100750002A028111A9CFE6CF0E94FA01811111C0AE
:100760000E94060281110DC00E941202882349F0E6
:100770000E941E02882329F00E942A02882309F47D
:10078000BBCF0E94FA018823D9F00E940602882379
:10079000B9F00E941202882399F00E941E02882359
:1007A00079F00E942A02882359F022E050E040E0CC
:1007B00070E060E08DEA91E00E94B30010920A01BF
:1007C000089522E050E040E070E060E08DEA91E0C2
:1007D0000E94B3002FEF89E698E1215080409040BD
:1007E000E1F700C0000020E046E950E06CE870E06E
:1007F0008DEA91E00E94B3002FEF86E298E321504A
:1008000080409040E1F700C0000022E050E040E06E
:1008100070E060E08DEA91E00E94B3002FEF84E386
:100820009CE0215080409040E1F700C0000020E0B3
:1008300050E040E066E970E08DEA91E00E94B3008C
:100840002FEF8DE292E2215080409040E1F700C00E
:10085000000022E050E040E070E060E08DEA91E0CE
:100860000E94B3002FEF84E39CE021508040904031
:10087000E1F700C0000020E046E950E06CE870E0DD
:100880008DEA91E00E94B3002FEF83ED90E32150B9
:1008900080409040E1F700C0000022E050E040E0DE
:1008A00070E060E08DEA91E00E94B3002FEF84E3F6
:1008B0009CE0215080409040E1F700C0000020E023
:1008C00046E950E070E060E08DEA91E00E94B300FC
:1008D0002FEF8DE292E2215080409040E1F700C07E
:1008E000000022E050E040E070E060E08DEA91E03E
:1008F0000E94B3002FEF84E39CE0215080409040A1
:10090000E1F700C000004EE150E06DE270E08CEADB
:1009100091E00E94C5162FEF8DE399E421508040AD
:100920009040E1F700C000008CEA91E00E94E916D7
:1009300020E046E950E070E060E08DEA91E00E943E
:10094000B3002FEF8DE292E2215080409040E1F71A
:1009500000C0000022E050E040E070E060E08DEA7E
:1009600091E00E94B3002FEF84E39CE0215080408F
:100970009040E1F700C000004EE150E06DE270E011
:100980008CEA91E00E94C5162FEF8DE399E4215087
:1009900080409040E1F700C000008CEA91E00E94A6
:1009A000E91620E040EA50E066E970E08DEA91E067
:1009B0000E94B3002FEF8EE994E2215080409040D6
:1009C000E1F700C0000022E050E040E070E060E0AD
:1009D0008DEA91E00E94B3002FEF84E39CE0215068
:1009E00080409040E1F700C000000C94040322E036
:1009F00050E040E070E060E08DEA91E00E94B300DA
:100A00002FEF89E698E1215080409040E1F700C047
:100A1000000020E046E950E06CE870E08DEA91E0EB
:100A20000E94B3002FEF84E493E321508040904074
:100A3000E1F700C0000022E050E040E070E060E03C
:100A40008DEA91E00E94B3002FEF84E39CE02150F7
:100A500080409040E1F700C0000020E050E040E01E
:100A600066E970E08DEA91E00E94B3002FEF8DE21D
:100A700092E2215080409040E1F700C0000022E067
:100A800050E040E070E060E08DEA91E00E94B30049
:100A90002FEF84E39CE0215080409040E1F700C0BC
:100AA000000020E046E950E06CE870E08DEA91E05B
:100AB0000E94B3002FEF8CEB9FE1215080409040CB
:100AC000E1F700C0000022E050E040E070E060E0AC
:100AD0008DEA91E00E94B3002FEF84E39CE0215067
:100AE00080409040E1F700C0000020E046E950E07F
:100AF00070E060E08DEA91E00E94B3002FEF8DE29C
:100B000092E2215080409040E1F700C0000022E0D6
:100B100050E040E070E060E08DEA91E00E94B300B8
:100B20002FEF84E39CE0215080409040E1F700C02B
:100B300000004EE150E06DE270E08CEA91E00E942E
:100B4000C5162FEF8DE399E4215080409040E1F7E6
:100B500000C000008CEA91E00E94E91620E046E91E
:100B600050E070E060E08DEA91E00E94B3002FEF6A
:100B70008DE292E2215080409040E1F700C00000F9
:100B800022E050E040E070E060E08DEA91E00E94F9
:100B9000B3002FEF84E39CE0215080409040E1F7C8
:100BA00000C000004EE150E06DE270E08CEA91E0A0
:100BB0000E94C5162FEF8DE399E4215080409040AC
:100BC000E1F700C000008CEA91E00E94E91620E005
:100BD00040EA50E066E970E08DEA91E00E94B300DF
:100BE0002FEF8AED9AE1215080409040E1F700C05C
:100BF000000022E050E040E070E060E08DEA91E02B
:100C00000E94B3002FEF84E39CE02150804090408D
:100C1000E1F700C000000C94040322E050E040E043
:100C200070E060E08DEA91E00E94B3002FEF89E66A
:100C300098E1215080409040E1F700C0000020E0A2
:100C400046E950E06CE870E08DEA91E00E94B30064
:100C50002FEF84E493E3215080409040E1F700C0FF
:100C6000000022E050E040E070E060E08DEA91E0BA
:100C70000E94B3002FEF84E39CE02150804090401D
:100C8000E1F700C0000020E050E040E066E970E0DD
:100C90008DEA91E00E94B3002FEF8DE292E22150A5
:100CA00080409040E1F700C0000022E050E040E0CA
:100CB00070E060E08DEA91E00E94B3002FEF84E3E2
:100CC0009CE0215080409040E1F700C0000020E00F
:100CD00046E950E06CE870E08DEA91E00E94B300D4
:100CE0002FEF87E893E1215080409040E1F700C06A
:100CF000000022E050E040E070E060E08DEA91E02A
:100D00000E94B3002FEF84E39CE02150804090408C
:100D1000E1F700C0000020E046E950E070E060E04C
:100D20008DEA91E00E94B3002FEF8DE292E2215014
:100D300080409040E1F700C0000022E050E040E039
:100D400070E060E08DEA91E00E94B3002FEF84E351
:100D50009CE0215080409040E1F700C000004EE14F
:100D600050E06DE270E08CEA91E00E94C5162FEF32
:100D70008DE399E4215080409040E1F700C00000ED
:100D80008CEA91E00E94E91620E046E950E070E02C
:100D900060E08DEA91E00E94B3002FEF8DE292E2D5
:100DA000215080409040E1F700C0000022E050E078
:100DB00040E070E060E08DEA91E00E94B3002FEF28
:100DC00084E39CE0215080409040E1F700C00000A7
:100DD0004EE150E06DE270E08CEA91E00E94C516B1
:100DE0002FEF8DE399E4215080409040E1F700C05F
:100DF00000008CEA91E00E94E91620E040EA50E011
:100E000066E970E08DEA91E00E94B3002FE78FE47D
:100E100092E1215080409040E1F700C0000022E0C4
:100E200050E040E070E060E08DEA91E00E94B300A5
:100E30002FEF84E39CE0215080409040E1F700C018
:100E400000000C94040322E050E040E070E060E019
:100E50008DEA91E00E94B3002FEF89E698E12150DE
:100E600080409040E1F700C0000020E046E950E0FB
:100E70006CE870E08DEA91E00E94B3002FE787ED07
:100E800095E2215080409040E1F700C0000022E050
:100E900050E040E070E060E08DEA91E00E94B30035
:100EA0002FEF84E39CE0215080409040E1F700C0A8
:100EB000000020E050E040E066E970E08DEA91E05B
:100EC0000E94B3002FEF8DE292E2215080409040CB
:100ED000E1F700C0000022E050E040E070E060E098
:100EE0008DEA91E00E94B3002FEF84E39CE0215053
:100EF00080409040E1F700C0000020E046E950E06B
:100F00006CE870E08DEA91E00E94B3002FEF83ED72
:100F100090E3215080409040E1F700C0000022E0C3
:100F200050E040E070E060E08DEA91E00E94B300A4
:100F30002FEF84E39CE0215080409040E1F700C017
:100F4000000020E046E950E070E060E08DEA91E0CA
:100F50000E94B3002FEF8DE292E22150804090403A
:100F6000E1F700C0000022E050E040E070E060E007
:100F70008DEA91E00E94B3002FEF84E39CE02150C2
:100F800080409040E1F700C000004EE150E06DE28B
:100F900070E08CEA91E00E94C5162FEF8DE399E492
:100FA000215080409040E1F700C000008CEA91E0C1
:100FB0000E94E91620E046E950E070E060E08DEA2A
:100FC00091E00E94B3002FEF8DE292E22150804029
:100FD0009040E1F700C0000022E050E040E070E007
:100FE00060E08DEA91E00E94B3002FEF84E39CE083
:100FF000215080409040E1F700C000004EE150E0F9
:101000006DE270E08CEA91E00E94C5162FEF8DE34F
:1010100099E4215080409040E1F700C000008CEA44
:1010200091E00E94E91620E040EA50E06CE870E0B0
:101030008DEA91E00E94B3002FEF8EE994E22150F7
:1010400080409040E1F700C0000022E050E040E026
:1010500070E060E08DEA91E00E94B3002FEF84E33E
:101060009CE0215080409040E1F700C000000C94CB
:10107000040322E050E040E070E060E08DEA91E09F
:101080000E94B3002FEF89E698E121508040904004
:10109000E1F700C0000020E046E950E06CE870E0B5
:1010A0008DEA91E00E94B3002FEF80E899E2215091
:1010B00080409040E1F700C0000022E050E040E0B6
:1010C00070E060E08DEA91E00E94B3002FEF84E3CE
:1010D0009CE0215080409040E1F700C0000020E0FB
:1010E00050E040E066E970E08DEA91E00E94B300D4
:1010F0002FEF8DE292E2215080409040E1F700C056
:10110000000022E050E040E070E060E08DEA91E015
:101110000E94B3002FEF84E39CE021508040904078
:10112000E1F700C0000020E046E950E06CE870E024
:101130008DEA91E00E94B3002FEF8DE292E2215000
:1011400080409040E1F700C0000022E050E040E025
:1011500070E060E08DEA91E00E94B3002FEF84E33D
:101160009CE0215080409040E1F700C0000020E06A
:1011700046E950E070E060E08DEA91E00E94B30043
:101180002FEF8DE292E2215080409040E1F700C0C5
:10119000000022E050E040E070E060E08DEA91E085
:1011A0000E94B3002FEF84E39CE0215080409040E8
:1011B000E1F700C000004EE150E06DE270E08CEA23
:1011C00091E00E94C5162FEF8DE399E421508040F5
:1011D0009040E1F700C000008CEA91E00E94E9161F
:1011E00020E046E950E070E060E08DEA91E00E9486
:1011F000B3002FEF8DE292E2215080409040E1F762
:1012000000C0000022E050E040E070E060E08DEAC5
:1012100091E00E94B3002FEF84E39CE021508040D6
:101220009040E1F700C000004EE150E06DE270E058
:101230008CEA91E00E94C5162FEF8DE399E42150CE
:1012400080409040E1F700C000008CEA91E00E94ED
:10125000E91620E04CE850E060EA70E08DEA91E0A9
:101260000E94B3002FEF89E698E121508040904022
:10127000E1F700C0000022E050E040E070E060E0F4
:101280008DEA91E00E94B3002FEF84E39CE02150AF
:1012900080409040E1F700C000000C94040322E07D
:1012A00050E040E070E060E08DEA91E00E94B30021
:1012B0002FEF89E698E1215080409040E1F700C08F
:1012C000000020E046E950E06CE870E08DEA91E033
:1012D0000E94B3002FE788E498E2215080409040BC
:1012E000E1F700C0000022E050E040E070E060E084
:1012F0008DEA91E00E94B3002FEF84E39CE021503F
:1013000080409040E1F700C0000020E050E040E065
:1013100066E970E08DEA91E00E94B3002FEF8DE264
:1013200092E2215080409040E1F700C0000022E0AE
:1013300050E040E070E060E08DEA91E00E94B30090
:101340002FEF84E39CE0215080409040E1F700C003
:10135000000020E046E950E06CE870E08DEA91E0A2
:101360000E94B3002FEF86E191E121508040904030
:10137000E1F700C0000022E050E040E070E060E0F3
:101380008DEA91E00E94B3002FEF84E39CE02150AE
:1013900080409040E1F700C0000020E046E950E0C6
:1013A00070E060E08DEA91E00E94B3002FEF8DE2E3
:1013B00092E2215080409040E1F700C0000022E01E
:1013C00050E040E070E060E08DEA91E00E94B30000
:1013D0002FEF84E39CE0215080409040E1F700C073
:1013E00000004EE150E06DE270E08CEA91E00E9476
:1013F000C5162FEF8DE399E4215080409040E1F72E
:1014000000C000008CEA91E00E94E91620E046E965
:1014100050E070E060E08DEA91E00E94B3002FEFB1
:101420008DE292E2215080409040E1F700C0000040
:1014300022E050E040E070E060E08DEA91E00E9440
:10144000B3002FEF84E39CE0215080409040E1F70F
:1014500000C000004EE150E06DE270E08CEA91E0E7
:101460000E94C5162FEF8DE399E4215080409040F3
:10147000E1F700C000008CEA91E00E94E91620E04C
:1014800048E750E066E970E08DEA91E00E94B30021
:101490002FEF8EE994E2215080409040E1F700C0A8
:1014A000000022E050E040E070E060E08DEA91E072
:1014B0000E94B3002FEF84E39CE0215080409040D5
:1014C000E1F700C000000C94040322E050E040E08B
:1014D00070E060E08DEA91E00E94B3002FEF89E6B2
:1014E00098E1215080409040E1F700C0000020E0EA
:1014F00046E950E06CE870E08DEA91E00E94B300AC
:101500002FEF88EF95E1215080409040E1F700C037
:10151000000022E050E040E070E060E08DEA91E001
:101520000E94B3002FEF84E39CE021508040904064
:10153000E1F700C0000020E050E040E066E970E024
:101540008DEA91E00E94B3002FE786E693E22150F6
:1015500080409040E1F700C0000022E050E040E011
:1015600070E060E08DEA91E00E94B3002FEF84E329
:101570009CE0215080409040E1F700C0000020E056
:1015800046E950E066E970E08DEA91E00E94B30020
:101590002FEF83ED90E3215080409040E1F700C0B1
:1015A000000022E050E040E070E060E08DEA91E071
:1015B0000E94B3002FEF84E39CE0215080409040D4
:1015C000E1F700C0000020E046E950E070E060E094
:1015D0008DEA91E00E94B3002FEF8DE292E221505C
:1015E00080409040E1F700C0000022E050E040E081
:1015F00070E060E08DEA91E00E94B3002FEF84E399
:101600009CE0215080409040E1F700C000004EE196
:1016100050E06DE270E08CEA91E00E94C5162FEF79
:101620008DE399E4215080409040E1F700C0000034
:101630008CEA91E00E94E91620E046E950E070E073
:1016400060E08DEA91E00E94B3002FEF8DE292E21C
:10165000215080409040E1F700C0000022E050E0BF
:1016600040E070E060E08DEA91E00E94B3002FEF6F
:1016700084E39CE0215080409040E1F700C00000EE
:101680004EE150E06DE270E08CEA91E00E94C516F8
:101690002FEF8DE399E4215080409040E1F700C0A6
:1016A00000008CEA91E00E94E91620E046E950E053
:1016B00060EA70E08DEA91E00E94B3002FEF8DE3C5
:1016C00099E4215080409040E1F700C0000022E002
:1016D00050E040E070E060E08DEA91E00E94B300ED
:1016E0002FEF84E39CE0215080409040E1F700C060
:1016F00000000C94040322E050E040E070E060E061
:101700008DEA91E00E94B3002FEF89E698E1215025
:1017100080409040E1F700C0000020E046E950E042
:101720006CE870E08DEA91E00E94B3002FEF88EF43
:1017300095E1215080409040E1F700C0000022E098
:1017400050E040E070E060E08DEA91E00E94B3007C
:101750002FEF84E39CE0215080409040E1F700C0EF
:10176000000020E050E040E066E970E08DEA91E0A2
:101770000E94B3002FEF8FE097E22150804090400D
:10178000E1F700C0000022E050E040E070E060E0DF
:101790008DEA91E00E94B3002FEF84E39CE021509A
:1017A00080409040E1F700C0000020E046E950E0B2
:1017B0006EE870E08DEA91E00E94B3002FEF8DE2B9
:1017C00092E2215080409040E1F700C0000022E00A
:1017D00050E040E070E060E08DEA91E00E94B300EC
:1017E0002FEF84E39CE0215080409040E1F700C05F
:1017F000000020E046E950E070E060E08DEA91E012
:101800000E94B3002FEF8DE292E221508040904081
:10181000E1F700C0000022E050E040E070E060E04E
:101820008DEA91E00E94B3002FEF84E39CE0215009
:1018300080409040E1F700C000004EE150E06DE2D2
:1018400070E08CEA91E00E94C5162FEF8DE399E4D9
:10185000215080409040E1F700C000008CEA91E008
:101860000E94E91620E046E950E070E060E08DEA71
:1018700091E00E94B3002FEF8DE292E22150804070
:101880009040E1F700C0000022E050E040E070E04E
:1018900060E08DEA91E00E94B3002FEF84E39CE0CA
:1018A000215080409040E1F700C000004EE150E040
:1018B0006DE270E08CEA91E00E94C5162FEF8DE397
:1018C00099E4215080409040E1F700C000008CEA8C
:1018D00091E00E94E91620E042E850E060EA70E002
:1018E0008DEA91E00E94B3002FEF87E99AE321503F
:1018F00080409040E1F700C0000022E050E040E06E
:1019000070E060E08DEA91E00E94B3002FEF84E385
:101910009CE0215080409040E1F700C000000C9412
:10192000040322E050E040E070E060E08DEA91E0E6
:101930000E94B3002FEF89E698E12150804090404B
:10194000E1F700C0000020E046E950E06CE870E0FC
:101950008DEA91E00E94B3002FEF88EF95E12150CE
:1019600080409040E1F700C0000022E050E040E0FD
:1019700070E060E08DEA91E00E94B3002FEF84E315
:101980009CE0215080409040E1F700C0000020E042
:1019900050E040E066E970E08DEA91E00E94B3001B
:1019A0002FEF8FE097E2215080409040E1F700C098
:1019B000000022E050E040E070E060E08DEA91E05D
:1019C0000E94B3002FEF84E39CE0215080409040C0
:1019D000E1F700C0000020E046E950E06EE870E06A
:1019E0008DEA91E00E94B3002FEF87E893E1215048
:1019F00080409040E1F700C0000022E050E040E06D
:101A000070E060E08DEA91E00E94B3002FEF84E384
:101A10009CE0215080409040E1F700C0000020E0B1
:101A200046E950E070E060E08DEA91E00E94B3008A
:101A30002FEF8DE292E2215080409040E1F700C00C
:101A4000000022E050E040E070E060E08DEA91E0CC
:101A50000E94B3002FEF84E39CE02150804090402F
:101A6000E1F700C000004EE150E06DE270E08CEA6A
:101A700091E00E94C5162FEF8DE399E4215080403C
:101A80009040E1F700C000008CEA91E00E94E91666
:101A900020E046E950E070E060E08DEA91E00E94CD
:101AA000B3002FEF8DE292E2215080409040E1F7A9
:101AB00000C0000022E050E040E070E060E08DEA0D
:101AC00091E00E94B3002FEF84E39CE0215080401E
:101AD0009040E1F700C000004EE150E06DE270E0A0
:101AE0008CEA91E00E94C5162FEF8DE399E4215016
:101AF00080409040E1F700C000008CEA91E00E9435
:101B0000E91620E046E950E06CE870E08DEA91E0EB
:101B10000E94B3002FEF8EE994E221508040904064
:101B2000E1F700C0000022E050E040E070E060E03B
:101B30008DEA91E00E94B3002FEF84E39CE02150F6
:101B400080409040E1F700C0000020E050E040E01D
:101B500066E970E08DEA91E00E94B3002FEF8EE914
:101B600094E2215080409040E1F700C0000022E064
:101B700050E040E070E060E08DEA91E00E94B30048
:101B80002FEF84E39CE0215080409040E1F700C0BB
:101B9000000020E046E950E06CE870E08DEA91E05A
:101BA0000E94B3002FEF8EE994E2215080409040D4
:101BB000E1F700C000000C940403019789309105FF
:101BC00000F5FC01EA51F24F0C94BC1AEF0DF10D37
:101BD000F30DF50DF70DF90DFB0DFD0DFF0D0C943B
:101BE000E1030C94F7040C940D060C9423070C9459
:101BF00039080C944F090C94650A0C947B0B0C94D7
:101C0000910C08950E94FA01811114C00E940602ED
:101C1000811110C00E941202882361F00E941E02EE
:101C2000811108C00E942A0220E042E850E0882387
:101C300009F449C00E94FA01882391F10E94FA0137
:101C4000811147C00E94FA01811110C00E94060252
:101C5000882361F00E941202882341F00E941E0234
:101C6000811104C00E942A02882351F10E94FA01C6
:101C7000811140C00E94060281113CC00E941202E4
:101C8000811138C00E941E028823A1F10E942A02FD
:101C9000811130C020E042E850E06AE570E015C0F4
:101CA0000E940602882351F20E9412028111C6CFBF
:101CB0000E941E028111C2CF0E942A028111BECF52
:101CC00020E04AE550E062E870E08DEA91E00C9493
:101CD000B3000E9406028111B5CF0E941202811149
:101CE000B1CF0E941E028111ADCF0E942A02811144
:101CF000A9CFE6CF0E94FA01811116C00E94060208
:101D0000811112C00E941202882371F00E941E02EB
:101D1000882351F00E942A02811106C020E042E887
:101D200050E060E570E0D1CF0E94FA01882321F1F4
:101D30000E940602882301F10E9412028823E1F02A
:101D40000E941E02811118C00E942A02811114C033
:101D500022E050E040E070E060E08DEA91E00E9417
:101D6000B3002FEF84E39CE0215080409040E1F7E6
:101D700000C000001092090108950E94FA0181112B
:101D800015C00E940602811111C00E941202882310
:101D900069F00E941E02811109C00E942A0220E0FF
:101DA00042E850E062E870E0882399F10E94FA016D
:101DB0008823D1F00E94FA0181112FC00E940602EF
:101DC00081112BC00E941202811127C00E941E02A5
:101DD000882319F10E942A0281111FC020E04EE6DB
:101DE00050E066E470E015C00E940602882311F3FB
:101DF0000E9412028111DECF0E941E028111DACFF1
:101E00000E942A028111D6CF20E046E450E06EE61F
:101E100070E08DEA91E00C94B3000E94FA01811108
:101E20004CC00E94FA0181115CC00E94060281111F
:101E300058C00E941202882309F453C00E941E0257
:101E4000882309F44EC00E942A02882309F449C05D
:101E500020E042E850E062E870E08DEA91E00E9404
:101E6000B3002FEF85EA9EE0215080409040E1F7DB
:101E700000C0000020E044E650E070E060E08DEA41
:101E800091E00E94B3000E94FA018111F3CF0E94F9
:101E900006028111EFCF0E941202882359F30E949B
:101EA0001E028111E7CF0E942A028111E3CF22E0B6
:101EB00050E040E070E060E0ACCF0E94060281118B
:101EC000B0CF0E9412028111ACCF0E941E0281117C
:101ED000A8CF0E942A028111A4CF20E04FE050E059
:101EE00080CF0E94FA01882381F10E940602882394
:101EF00061F10E941202882341F10E941E028111A9
:101F000024C00E942A02811120C022E050E040E05B
:101F100070E060E08DEA91E00E94B3000E94FA0157
:101F2000882399F00E940602882379F00E94120209
:101F3000882359F00E941E02811107C00E942A02C4
:101F4000811103C010920801E9CF08950E94FA019F
:101F5000811113C00E94060281110FC00E9412025B
:101F6000882359F00E941E02811107C00E942A0294
:101F700020E046E950E0882399F10E94FA01882385
:101F8000E1F00E94FA01811131C00E94FA01811131
:101F900041C00E9406028823E9F10E9412028823B0
:101FA000C9F10E941E02811135C00E942A028111CE
:101FB00031C020E04EE650E013C00E9406028823A4
:101FC00001F30E9412028111DCCF0E941E028111D6
:101FD000D8CF0E942A028111D4CF20E044E650E0FD
:101FE00066E970E08DEA91E00C94B3000E9406026D
:101FF0008111CBCF0E9412028111C7CF0E941E0215
:102000008111C3CF0E942A028111BFCF20E04AE58F
:1020100050E0E6CF0E94FA01811116C00E9406022C
:10202000811112C00E94120281110EC00E941E0274
:10203000882351F00E942A02811106C020E046E95F
:1020400050E064E670E0CECF0E94FA01811116C024
:102050000E940602811112C00E941202882371F0B0
:102060000E941E02882351F00E942A02811106C09C
:1020700020E046E950E06EE670E0B4CF0E94FA013D
:10208000811114C00E940602882381F00E9412026E
:10209000882361F00E941E02882341F00E942A02D8
:1020A000811104C020E04CE350E0E5CF0E94FA012A
:1020B0008823D9F00E9406028823B9F00E941202F8
:1020C000882399F00E941E02882379F00E942A0238
:1020D000882359F022E050E040E070E060E08DEAB3
:1020E00091E00E94B3001092070108950E94FA0146
:1020F000882309F443C00E940602882309F43EC0E5
:102100000E9412028823D1F10E941E02811136C062
:102110000E942A02811132C08FE19EE40197F1F7FB
:1021200000C000000E94FA01882309F48DC00E94BB
:102130000602882309F488C00E941202882309F449
:1021400083C00E941E0281117FC00E942A02811159
:102150007BC020E04AEA50E060EA70E08DEA91E05E
:102160000E94B30081E08093A5018091A40188239F
:1021700009F46AC08091A6018E5F06C10E94FA012F
:10218000811139C00E94FA0181115FC00E940602CC
:1021900081115BC00E941202882309F456C00E947C
:1021A0001E02811152C00E942A0281114EC08FE18D
:1021B0009EE40197F1F700C000000E94FA0181112E
:1021C00043C00E94060281113FC00E941202882370
:1021D000D9F10E941E02811137C00E942A0281118A
:1021E00033C020E04AEA50E060EA70E08DEA91E016
:1021F0000E94B300BACF0E940602882309F4C2CF1E
:102200000E941202882309F4BDCF0E941E02882377
:1022100009F4B8CF0E942A028111B4CF8FE19EE465
:102220000197F1F700C000000E94FA01882361F0D5
:102230000E940602882341F00E941202882321F0A6
:102240000E941E02811181CF08950E94FA0181111E
:1022500036C00E940602811132C00E9412028823F9
:1022600071F10E941E02882351F10E942A028823E4
:1022700031F18FE19EE40197F1F700C000000E9468
:10228000FA018111E1CF0E9406028111DDCF0E9487
:1022900012028823C9F20E941E028823A9F20E941A
:1022A0002A02882389F220E04AEA50E060EA70E0DE
:1022B0008DEA91E00E94B3001092A50156CF0E94D2
:1022C000FA01811120C00E9406028823E1F00E94D9
:1022D00012028823C1F00E941E028823A1F00E94EE
:1022E0002A02882381F08FE19EE40197F1F700C074
:1022F00000000E94FA018111A7CF0E9406028823E4
:1023000009F4A2CFC4CF0E94FA01811140C00E94FB
:102310000602882309F43BC00E941202811137C0D3
:102320000E941E02811133C00E942A0281112FC017
:102330008FE19EE40197F1F700C000000E94FA01CE
:10234000811182CF0E940602882309F47DCF0E946A
:102350001202811179CF0E941E02811175CF0E9455
:102360002A0220E040E550E060EA70E081116CCF85
:102370008DEA91E00E94B3008091A401882309F4C2
:1023800063CF8091A6018F5F8093A60108950E947C
:10239000FA01811131C00E94060281112DC00E94F4
:1023A0001202811129C00E941E02882329F10E9475
:1023B0002A02811121C08FE19EE40197F1F700C04C
:1023C00000000E94FA0181113FCF0E940602811194
:1023D0003BCF0E941202811137CF0E941E02882338
:1023E00009F432CF0E942A0281112ECF20E04AEA5E
:1023F00050E060E570E0BCCF0E94FA01811147C057
:102400000E94FA01811120CF0E94060281111CCF87
:102410000E941202811118CF0E941E02811114CF56
:102420000E942A02811110CF9FEF20E782E0915095
:1024300020408040E1F700C000000E94FA018111B5
:1024400003CF0E9406028111FFCE0E941202811169
:10245000FBCE0E941E028111F7CE0E942A0281113A
:10246000F3CE22E050E040E070E060E08DEA91E0E1
:102470000E94B3008091A6019091A501873908F4CC
:1024800046C0992309F451C084E088B94BC00E942A
:102490000602882309F4B4CF0E941202882309F4AB
:1024A000AFCF0E941E02882309F4AACF0E942A02FD
:1024B000882309F4A5CF8FE19EE40197F1F700C0CE
:1024C00000000E94FA01882309F4BECE0E94060291
:1024D000882309F4B9CE0E941202882309F4B4CEED
:1024E0000E941E02882309F4AFCE0E942A0288238C
:1024F00009F4AACE20E04AEA50E060EA70E08DEAF2
:1025000091E00E94B30081E08093A40133CE86392C
:1025100039F088E09111B9CF82E0B7CF81E0B5CF33
:102520009923D1F3109206010895813AB8F7803AC1
:1025300099F7F8CF0E94FA01811114C00E94060297
:10254000811110C00E941202882361F00E941E02B5
:10255000811108C00E942A0220E042E850E088234E
:1025600009F449C00E94FA01882391F10E94FA01FE
:10257000811147C00E94FA01811110C00E94060219
:10258000882361F00E941202882341F00E941E02FB
:10259000811104C00E942A02882351F10E94FA018D
:1025A000811140C00E94060281113CC00E941202AB
:1025B000811138C00E941E028823A1F10E942A02C4
:1025C000811130C020E042E850E06AE570E015C0BB
:1025D0000E940602882351F20E9412028111C6CF86
:1025E0000E941E028111C2CF0E942A028111BECF19
:1025F00020E04AE550E062E870E08DEA91E00C945A
:10260000B3000E9406028111B5CF0E94120281110F
:10261000B1CF0E941E028111ADCF0E942A0281110A
:10262000A9CFE6CF0E94FA01811116C00E940602CE
:10263000811112C00E941202882371F00E941E02B2
:10264000882351F00E942A02811106C020E042E84E
:1026500050E060E570E0D1CF0E94FA01882321F1BB
:102660000E940602882301F10E9412028823E1F0F1
:102670000E941E02811118C00E942A02811114C0FA
:1026800022E050E040E070E060E08DEA91E00E94DE
:10269000B3002FEF84E39CE0215080409040E1F7AD
:1026A00000C000001092050108950E94FA018111F6
:1026B00014C00E940602811110C00E9412028823D9
:1026C00061F00E941E02811108C00E942A0281113D
:1026D00004C020E042E850E034C00E94FA018823A0
:1026E000E9F00E94FA0181112FC00E9406028111B7
:1026F0002BC00E941202811127C00E941E02882353
:1027000019F10E942A0281111FC020E042E850E026
:102710006AE570E08DEA91E00C94B3000E94060235
:102720008823F9F20E9412028111DBCF0E941E025F
:102730008111D7CF0E942A028111D3CF20E04AE530
:1027400050E062E870E0E6CF0E94FA01811176C0A5
:102750000E94FA018111BDC00E94FA01811110C0CE
:102760000E94060281110CC00E941202811108C051
:102770000E941E02811104C00E942A028111DECF34
:102780000E94FA01811111C00E94060281110DC040
:102790000E941202811109C00E941E02811105C00F
:1027A0000E942A02882309F494CF0E94FA01811121
:1027B000A1C00E94FA018111DBC00E94FA018823A6
:1027C00009F412C10E940602882309F40DC10E9477
:1027D0001202811109C10E941E02811105C10E94CD
:1027E0002A02811101C120E050E040E070E060E089
:1027F0008DEA91E00E94B3009FEF20E782E09150C4
:1028000020408040E1F700C000000E94FA018823C8
:1028100009F4EAC00E940602882309F4E5C00E9478
:1028200012028111E1C00E941E028111DDC00E94CE
:102830002A028111D9C010920401E7CF0E9406023A
:10284000882309F485CF0E941202882309F480CFDF
:102850000E941E02882309F47BCF0E942A0288234B
:1028600009F476CF41E050E06DE270E08CEA91E04F
:102870000E94C5162FE788E391E0215080409040E8
:10288000E1F700C000008CEA91E00E94E9168FE3B6
:102890009CE90197F1F700C0000041E050E06DE2D3
:1028A00070E08CEA91E00E94C5169FE728E381E082
:1028B000915020408040E1F700C000008CEA91E098
:1028C0000E94E9168FE39CE90197F1F700C0000030
:1028D00000CF0E94060281113FCF0E941202811197
:1028E0003BCF0E941E02811137CF0E942A02811124
:1028F00033CF0BCF0E940602882309F45ACF0E94DF
:102900001202882309F455CF0E941E02811151CF73
:102910000E942A0281114DCF20E050E040E070E09B
:1029200060E08DEA91E00E94B3009FEF20E782E033
:10293000915020408040E1F700C000000E94FA0161
:10294000882309F451C00E940602882309F44CC070
:102950000E941202882309F447C00E941E028111BE
:1029600043C00E942A0281113FC010920401E6CFA9
:102970000E940602882309F420CF0E9412028823B5
:1029800009F41BCF0E941E02882309F416CF0E946F
:102990002A02811112CF20E050E040E070E060E0B8
:1029A0008DEA91E00E94B3009FEF20E782E0915012
:1029B00020408040E1F700C000000E94FA01882317
:1029C00099F00E940602882379F00E94120288235F
:1029D00059F00E941E02882339F00E942A028111B8
:1029E00003C010920401E9CF089580910A01882361
:1029F00029F00E9436020E943403F7CF0895809197
:102A00000901882329F00E9436020E94020EF7CFA6
:102A1000089580910801882329F00E9436020E94BF
:102A2000BD0EF7CF089580910701882329F00E94F9
:102A300036020E94A60FF7CF0895809106018823E1
:102A400029F00E9436020E947610F7CF08958091F7
:102A50000501882329F00E9436020E949A12F7CFBE
:102A6000089580910401882329F00E9436020E9473
:102A70005513F7CF08951F93CF93DF931092A101C1
:102A8000C2E0D0E011E0C630D10509F40EC18230B9
:102A9000910509F490C00CF052C08130910599F76E
:102AA0000E94F5148091A0018823E1F32FEF87EABB
:102AB00091E6215080409040E1F700C000008091F5
:102AC000A10190E00E94DD0D1092A1010E94FF146F
:102AD000C530D10571F14EE150E06DE270E08CEA55
:102AE00091E00E94C5162FEF8DE399E421508040BC
:102AF0009040E1F700C000008CEA91E00E94E916E6
:102B00000E94C2024EE150E06DE270E08CEA91E07A
:102B10000E94C5162FEF8DE399E42150804090402C
:102B2000E1F700C000008CEA91E00E94E9161093E2
:102B3000A2011092A30182E090E02196A4CF8330FD
:102B4000910509F46CC08430910509F09CCF0E9476
:102B50003115C530D10561F14EE150E06DE270E014
:102B60008CEA91E00E94C5162FEF8DE399E4215085
:102B700080409040E1F700C000008CEA91E00E94A4
:102B8000E9160E946E024EE150E06DE270E08CEAC0
:102B900091E00E94C5162FEF8DE399E4215080400B
:102BA0009040E1F700C000008CEA91E00E94E91635
:102BB00081E090E0C2CF0E940915C530D10561F1D6
:102BC0004EE150E06DE270E08CEA91E00E94C516A3
:102BD0002FEF8DE399E4215080409040E1F700C051
:102BE00000008CEA91E00E94E9160E94C2024EE1C8
:102BF00050E06DE270E08CEA91E00E94C5162FEF84
:102C00008DE399E4215080409040E1F700C000003E
:102C10008CEA91E00E94E91683E090E08ECF0E945A
:102C200013158091A1018823E1F30E941D15809165
:102C3000A1018130E1F30E9427151092A101C53056
:102C4000D10571F14EE150E06DE270E08CEA91E067
:102C50000E94C5162FEF8DE399E4215080409040EB
:102C6000E1F700C000008CEA91E00E94E9160E94A2
:102C7000C2024EE150E06DE270E08CEA91E00E9409
:102C8000C5162FEF8DE399E4215080409040E1F785
:102C900000C000008CEA91E00E94E9161093A301A5
:102CA0001092A20184E090E048CFDF91CF911F9174
:102CB00008958130910561F481E088B92FEF8DE3AB
:102CC00099E4215080409040E1F700C00000089551
:102CD0008230910511F482E0F0CF8330910511F438
:102CE00084E0EBCF049799F788E0E7CF8AEA91E098
:102CF0000E94071741E050E06DE270E08CEA91E03D
:102D00000E94C5162FEF83ED90E321508040904044
:102D1000E1F700C000008CEA91E00C94E9160895F8
:102D2000443451F130F44234B9F0F0F4413461F0FC
:102D30000895423689F018F4413631F0089543364B
:102D400099F04436C9F008958FEF81B901C0660F3C
:102D50002A95EAF762B908958FEF84B901C0660F2A
:102D60002A95EAF765B908958FEF87B901C0660F14
:102D70002A95EAF768B908958FEF8AB901C0660FFE
:102D80002A95EAF76BB908950895CF93DF9384B538
:102D9000826084BD84B5806484BD85B5846085BD52
:102DA000660F771F660F771FEB01C85ADF4FBA0116
:102DB000550F880B990B0E94C319288139814A81CC
:102DC0005B810E94271A0E94921967BDDF91CF9103
:102DD000089584B514BC0895FC01118210820895F1
:102DE00021E0FC01218310821092B2006093B300B5
:102DF000E0EBF0E080818083E1EBF0E080818F60A8
:102E00008083E0E7F0E08081826080830895EEE6D1
:102E1000F0E0808180830895FC0180810895FC01A9
:102E20008181089521E0FC0120830895FC01108236
:102E300024E030E032832183089529B130E0FC01A1
:102E40004181528124233523232B81F0E3ECF9E0E7
:102E50003197F1F700C0000029B130E0FC01818119
:102E600092812823392381E0232B09F480E00895FF
:102E7000F894E89AE9E6F0E08081816080837894B4
:102E80000895FC0180810895FC018181928108955B
:102E90002FEF30E0FC013183208308951092C500AC
:102EA0008FEC8093C4001092C00088E18093C10031
:102EB00086E08093C20008958091C00085FFFCCF1A
:102EC0006093C60008958091C00087FFFCCF809179
:102ED000C6000895EF92FF920F931F93CF93DF9355
:102EE00000D0CDB7DEB78C01FC0180818AB9C80162
:102EF0000E944E17CE0102960E94AD1770E060E06E
:102F000089818F3F99F07B01FFEFEF1AFF0AAE0135
:102F10004F5F5F4FCE0102960E94BD1769816F3FE0
:102F200019F0C8010E945C17B701EACFCE010296E2
:102F30000E94A3170F900F90DF91CF911F910F91D7
:102F4000FF90EF900895089580EA80930B0110920E
:102F5000B90080E28093B800089520E8FC01208346
:102F60000C94A417982F9370891305C0880F806A5A
:102F700080930B0108958FEF089594EA24E89093CD
:102F8000BC008091BC0087FFFCCF80910B01809337
:102F9000BB002093BC008091BC0087FFFCCF8091D8
:102FA000B900883161F784EA8093BC008091BC004D
:102FB00087FFFCCF80910B018093BB0084E8809356
:102FC000BC008091BC0087FFFCCF7093BB0084E8FD
:102FD0008093BC008091BC0087FFFCCF6093BB0056
:102FE00084E88093BC008091BC0087FFFCCF809177
:102FF000BC0087FFFCCF84EA8093BC008091BC00BA
:1030000087FFFCCF80910B018F5F8093BB0084E82A
:103010008093BC008091BC0087FFFCCF84E8809344
:10302000BC008091BC0087FFFCCF8091BB00FA01FF
:10303000808384E98093BC0080E0089594EA34E8BA
:103040009093BC008091BC0087FFFCCF80910B0166
:103050008093BB003093BC008091BC0087FFFCCF05
:103060008091B900883161F784EA8093BC00809137
:10307000BC0087FFFCCF80910B018093BB0084E8EC
:103080008093BC008091BC0087FFFCCF7093BB0095
:1030900084E88093BC008091BC0087FFFCCF6093E4
:1030A000BB0084E88093BC008091BC0087FFFCCF0C
:1030B00084EA8093BC008091BC0087FFFCCF8091A4
:1030C0000B018F5F8093BB0084E88093BC008091EC
:1030D000BC0087FFFCCFFA0184EC222371F0213081
:1030E00009F484E88093BC009091BC0097FFFCCF6A
:1030F0009091BB0091932150F0CF84E98093BC0064
:1031000080E0089594EA24E89093BC008091BC008C
:1031100087FFFCCF80910B018093BB002093BC0004
:103120008091BC0087FFFCCF8091B900883161F7A6
:1031300084EA8093BC008091BC0087FFFCCF809123
:103140000B018093BB0084E88093BC008091BC009D
:1031500087FFFCCF7093BB0084E88093BC00809114
:10316000BC0087FFFCCF6093BB0084E88093BC0069
:103170008091BC0087FFFCCF4093BB0084E8809324
:10318000BC008091BC0087FFFCCF84E98093BC0029
:1031900080E00895260F372F311DFC01808181507A
:1031A000990B862B972B2817390718F09C012F5F56
:1031B0003F4F822F861B24EA34E82093BC00909175
:1031C000BC0097FFFCCF90910B019093BB00309314
:1031D000BC009091BC0097FFFCCF9091B900983152
:1031E00061F794EA9093BC009091BC0097FFFCCFEC
:1031F00090910B019093BB0094E89093BC00909148
:10320000BC0097FFFCCF7093BB0094E89093BC0088
:103210009091BC0097FFFCCF6093BB0094E8909323
:10322000BC009091BC0097FFFCCFFA01982F24E8D6
:10323000992359F031913093BB002093BC00309119
:10324000BC0037FFFCCF9150F3CF94E99093BC00C2
:103250000895CF92DF92EF92FF920F931F93CF9337
:103260006C017B018A01C22F2C2FA801B701C60176
:103270000E94CA18282F30E0E20EF31EC81B020F6E
:10328000131FC111F1CF80E0CF911F910F91FF90DB
:10329000EF90DF90CF9008950E94F30187EA91E0CC
:1032A0000E9438178091A0018823E1F31092010158
:1032B0008091A1018130B1F08091A101843090F41E
:1032C00081E08093A2018091A10190E00E945916B3
:1032D0008091A10190E00E943B150E94761690E03B
:1032E00080E0089581E08093A301EDCF81EB91E030
:1032F0000E946A008FEA91E00E948F168DEA91E0A9
:103300000E9497008CEA91E00E94C4168AEA91E03C
:103310000E94EC1687EA91E00C94161781EB91E07D
:103320000C9470000E94061A88F09F5798F0B92FED
:103330009927B751B0F0E1F0660F771F881F991FEA
:103340001AF0BA95C9F714C0B13091F00E94201A52
:10335000B1E008950C94201A672F782F8827B85F62
:1033600039F0B93FCCF3869577956795B395D9F742
:103370003EF490958095709561957F4F8F4F9F4F4C
:103380000895E89409C097FB3EF490958095709558
:1033900061957F4F8F4F9F4F9923A9F0F92F96E9A1
:1033A000BB279395F695879577956795B795F11116
:1033B000F8CFFAF4BB0F11F460FF1BC06F5F7F4FB3
:1033C0008F4F9F4F16C0882311F096E911C07723C5
:1033D00021F09EE8872F762F05C0662371F096E8CE
:1033E000862F70E060E02AF09A95660F771F881F9D
:1033F000DAF7880F9695879597F9089557FD9058B5
:10340000440F551F59F05F3F71F04795880F97FBA8
:10341000991F61F09F3F79F0879508951216130662
:103420001406551FF2CF4695F1DF08C01616170691
:103430001806991FF1CF86957105610508940895C6
:10344000E894BB2766277727CB0197F908950E9458
:103450003A1A0C94AB1A0E949D1A38F00E94A41AD2
:1034600020F0952311F00C94941A0C949A1A1124BC
:103470000C94211A0E94FE1970F3959FC1F3950FC9
:1034800050E0551F629FF001729FBB27F00DB11DE8
:10349000639FAA27F00DB11DAA1F649F6627B00D78
:1034A000A11D661F829F2227B00DA11D621F739F61
:1034B000B00DA11D621F839FA00D611D221F749F6F
:1034C0003327A00D611D231F849F600D211D822FB6
:1034D000762F6A2F11249F5750409AF0F1F08823DD
:1034E0004AF0EE0FFF1FBB1F661F771F881F91500A
:1034F0005040A9F79E3F510580F00C94941A0C940B
:10350000211A5F3FE4F3983ED4F38695779567954B
:10351000B795F795E7959F5FC1F7FE2B880F911D33
:103520009695879597F9089597F99F6780E870E0D9
:1035300060E008959FEF80EC089500240A94161629
:10354000170618060906089500240A941216130691
:10355000140605060895092E0394000C11F488231F
:1035600052F0BB0F40F4BF2B11F460FF04C06F5F3B
:103570007F4F8F4F9F4F0895EE0FFF1F0590F491DF
:10358000E02D099410E0CFE3D0E004C0FE010E94DA
:0E359000BC1A2196C034D107C9F7F894FFCFBA
:10359E009601010101010101010101A05D7491403B
:1035AE00724A8940D4958140D99F74400BE566409C
:1035BE0082EF59402CB44D4095284240E1423740AD
:1035CE00C0F92C40684423408E1A1A405D74114095
:1035DE00724A0940D4950140D99FF43F0BE5E63F6E
:1035EE0082EFD93F2CB4CD3F9528C23FE142B73F81
:1035FE00C0F9AC3F6844A33F8E1A9A3F5D74913F69
:10360E00724A893FD495813FD99F743F0BE5663F3F
:10361E0082EF593F2CB44D3F9528423FE142373F50
:10362E00C0F92C3F6844233F8E1A1A3F5D74113F38
:00000001FF
