:100000000C943E000C9453000C9453000C94530039
:100010000C9453000C9453000C9453000C94530014
:100020000C9453000C9453000C9453000C94530004
:100030000C9453000C9453000C9453000C945300F4
:100040000C9453000C9453000C9453000C945300E4
:100050000C9453000C9453000C9453000C945300D4
:100060000C9453000C9453000C9453000C945300C4
:100070000C9453000C9453000C94530011241FBE95
:10008000CFEFD8E0DEBFCDBF11E0A0E0B1E0E0EE01
:10009000F5E002C005900D92A230B107D9F70E9499
:1000A000DA020C94EE020C940000FC011182108222
:1000B0000895EF92FF920F931F93CF93DF9300D099
:1000C0001F92CDB7DEB78C01CE0103960E94E000EF
:1000D000CE0103960E94D700CE0101960E947F02B6
:1000E000CE0101960E948502CE0101960E949A02DD
:1000F000F82E482F70E060E0CE0103960E94B50113
:10010000F8011082F182CE0101960E949A02F82E27
:100110008FE097E20197F1F700C000004F2D70E0EB
:1001200060E0CE0103960E94B501EFE0F7E231975F
:10013000F1F700C00000F801808191818F2991833F
:10014000808382E0E82EF12CF80180819181E8160D
:10015000F906D0F4CE0101960E949A02EFE0F7E290
:100160003197F1F700C00000482FB701CE01039688
:100170000E94B5018FE097E20197F1F700C00000FF
:100180009FEFE91AF90AE0CFCE0103960E94D6004C
:100190000F900F900F90DF91CF911F910F91FF90D3
:1001A000EF900895FC01808191810895089580EA7F
:1001B000809300011092B90080E28093B800089506
:1001C00020E8FC0120830C94D700982F93708913AA
:1001D00005C0880F806A8093000108958FEF08950D
:1001E00094EA24E89093BC008091BC0087FFFCCF88
:1001F000809100018093BB002093BC008091BC00E3
:1002000087FFFCCF8091B900883161F784EA809341
:10021000BC008091BC0087FFFCCF809100018093DF
:10022000BB0084E88093BC008091BC0087FFFCCFBA
:100230007093BB0084E88093BC008091BC0087FF72
:10024000FCCF6093BB0084E88093BC008091BC002D
:1002500087FFFCCF8091BC0087FFFCCF84EA8093AE
:10026000BC008091BC0087FFFCCF809100018F5FB4
:100270008093BB0084E88093BC008091BC0087FF22
:10028000FCCF84E88093BC008091BC0087FFFCCF4A
:100290008091BB00FA01808384E98093BC0080E0F8
:1002A000089594EA34E89093BC008091BC0087FFE5
:1002B000FCCF809100018093BB003093BC00809103
:1002C000BC0087FFFCCF8091B900883161F784EAD8
:1002D0008093BC008091BC0087FFFCCF809100011F
:1002E0008093BB0084E88093BC008091BC0087FFB2
:1002F000FCCF7093BB0084E88093BC008091BC006D
:1003000087FFFCCF6093BB0084E88093BC008091A2
:10031000BC0087FFFCCF84EA8093BC008091BC00C6
:1003200087FFFCCF809100018F5F8093BB0084E842
:100330008093BC008091BC0087FFFCCFFA0184EC65
:10034000222371F0213009F484E88093BC0090915D
:10035000BC0097FFFCCF9091BB0091932150F0CF50
:1003600084E98093BC0080E0089594EA24E89093A7
:10037000BC008091BC0087FFFCCF8091000180937E
:10038000BB002093BC008091BC0087FFFCCF809114
:10039000B900883161F784EA8093BC008091BC0089
:1003A00087FFFCCF809100018093BB0084E880939D
:1003B000BC008091BC0087FFFCCF7093BB0084E839
:1003C0008093BC008091BC0087FFFCCF6093BB0092
:1003D00084E88093BC008091BC0087FFFCCF4093F1
:1003E000BB0084E88093BC008091BC0087FFFCCFF9
:1003F00084E98093BC0080E00895260F372F311DDB
:10040000FC0180818150990B862B972B2817390787
:1004100018F09C012F5F3F4F822F861B24EA34E89F
:100420002093BC009091BC0097FFFCCF90910001FD
:100430009093BB003093BC009091BC0097FFFCCF21
:100440009091B900983161F794EA9093BC00909133
:10045000BC0097FFFCCF909100019093BB0094E803
:100460009093BC009091BC0097FFFCCF7093BB00B1
:1004700094E89093BC009091BC0097FFFCCF6093F0
:10048000BB0094E89093BC009091BC0097FFFCCF18
:10049000FA01982F24E8992359F031913093BB0049
:1004A0002093BC003091BC0037FFFCCF9150F3CFBC
:1004B00094E99093BC000895CF92DF92EF92FF925F
:1004C0000F931F93CF936C017B018A01C22F2C2FB6
:1004D000A801B701C6010E94FD01282F30E0E20EFD
:1004E000F31EC81B020F131FC111F1CF80E0CF9183
:1004F0001F910F91FF90EF90DF90CF9008952FEF15
:1005000030E0FC013183208308951092C5008FEC08
:100510008093C4001092C00088E18093C10086E0FF
:100520008093C20008958091C00085FFFCCF609346
:10053000C60008958091C00087FFFCCF8091C6005F
:100540000895EF92FF920F931F93CF93DF9300D004
:10055000CDB7DEB78C01FC0180818AB9C8010E9449
:100560008502CE0102960E94E00070E060E0898181
:100570008F3F99F07B01FFEFEF1AFF0AAE014F5F4B
:100580005F4FCE0102960E94F00069816F3F19F023
:10059000C8010E949302B701EACFCE0102960E94E1
:1005A000D6000F900F90DF91CF911F910F91FF9088
:1005B000EF900895CF93DF9300D0CDB7DEB7CE0193
:1005C00001960E945500CE0101960E94590090E0CC
:1005D00080E00F900F90DF91CF910895F894FFCFB6
:0205E000A00079
:00000001FF
