:100000000C9440000C94AC000C9468000C946800B4
:100010000C9468000C9468000C9468000C946800C0
:100020000C9468000C946A000C9468000C946800AE
:100030000C9468000C9468000C9468000C946800A0
:100040000C9468000C9468000C9468000C94680090
:100050000C9468000C9468000C9468000C94680080
:100060000C9468000C9468000C9468000C94680070
:100070000C9468000C9468000C9468006C16801650
:1000800011241FBECFEFD8E0DEBFCDBF11E0A0E04E
:10009000B1E0E2E8FFE202C005900D92A03AB1079C
:1000A000D9F721E0A0EAB1E001C01D92A03BB20760
:1000B000E1F710E0CFE3D0E004C02197FE010E94F9
:1000C0008416CE33D107C9F70E9442160C94B41798
:1000D0000C9400001F920F920FB60F9211242F93D1
:1000E0003F934F935F936F937F938F939F93AF93C0
:1000F000BF93EF93FF938AEA91E00E9481158AEA09
:1001000091E00E947B15882301F1809100018823F2
:10011000E1F06AEF70E08AEA91E00E945F15809159
:100120000001815080930001FF91EF91BF91AF9149
:100130009F918F917F916F915F914F913F912F91FF
:100140000F900FBE0F901F90189586E980930001C5
:1001500081E08093A001E8CF1F920F920FB60F921B
:1001600011242F933F934F935F936F937F938F93BC
:100170009F93AF93BF93EF93FF934A9B4BC08FE541
:100180009AEE0197F1F700C000004A9B43C04AE095
:1001900050E06DE270E08CEA91E00E9407159FE765
:1001A00028E381E0915020408040E1F700C000004A
:1001B0008CEA91E00E942B158AEA91E00E94761564
:1001C00080910101882371F08091A101843051F464
:1001D0006AEF70E08AEA91E00E945F1581E0809307
:1001E000A10118C080910101882321F08091A10113
:1001F000843059F58091A30181111EC08091A30123
:1002000081111FC08091A201811129C08091A2019A
:1002100081112CC0E09AFF91EF91BF91AF919F9116
:100220008F917F916F915F914F913F912F910F909F
:100230000FBE0F901F9018958091A1018930F1F6A3
:10024000C7CF8091A1018930E9F26AEF70E08AEAB4
:1002500091E00E945F158091A1018F5FC0CF8091D6
:10026000A101813099F61092A101D4CF8091A10112
:10027000882389F3CFCF11B88FEF84B987B980EF86
:100280008AB9089560E08FEA91E00E94371521E075
:100290008C3B924008F020E0822F089561E08FEAC5
:1002A00091E00E94371521E08A3C934008F020E05D
:1002B000822F089562E08FEA91E00E94371521E0D5
:1002C0008235934008F020E0822F089563E08FEAA2
:1002D00091E00E94371521E08235934008F020E03C
:1002E000822F089564E08FEA91E00E94371521E0A3
:1002F0008032934008F020E0822F08950E9442014E
:10030000882311F081E088B90E944201811101C067
:1003100018B80E944E01882311F082E088B90E942B
:100320004E01811101C018B80E945A01882311F0B2
:1003300084E088B90E945A01811101C018B80E9456
:100340006601882311F088E088B90E946601811156
:1003500001C018B80E947201882311F080E188B9A9
:100360000E947201811101C018B8089520E04CE884
:1003700050E06CE870E08DEA91E00E94D3152FEF19
:1003800088EF95E1215080409040E1F700C00000E7
:1003900020E050E040E062E870E08DEA91E00E94E9
:1003A000D3152FEF82E597E0215080409040E1F790
:1003B00000C0000020E050E040E06EE670E08DEA12
:1003C00091E00E94D3150E9442018111F3CF0E9457
:1003D0004E018111EFCF0E945A01882359F30E94E8
:1003E00066018111E7CF0E9472018111E3CF22E003
:1003F00050E040E070E060E08DEA91E00E94D315AB
:100400002FEF84E39CE0215080409040E1F700C052
:100410000000089520E04CE850E06CE870E08DEAC0
:1004200091E00E94D3152FEF88EF95E12150804095
:100430009040E1F700C0000020E050E040E068E7B5
:1004400070E08DEA91E00E94D3150E944201811173
:10045000F3CF0E944E018111EFCF0E945A018823F1
:1004600059F30E9466018111E7CF0E947201811148
:10047000E3CF22E050E040E070E060E08DEA91E000
:100480000E94D3152FEF84E39CE0215080409040E0
:10049000E1F700C00000089520E050E040E068E788
:1004A00070E08DEA91E00E94D3150E944201811113
:1004B000F3CF0E944E018111EFCF0E945A01882391
:1004C00059F30E9466018111E7CF0E9472018111E8
:1004D000E3CF22E050E040E070E060E08DEA91E0A0
:1004E0000E94D3152FEF84E39CE021508040904080
:1004F000E1F700C0000008950E944201811113C07D
:100500000E944E0181110FC00E945A01882359F0A8
:100510000E946601811107C00E94720120E048E735
:1005200050E0882389F10E9442018823D1F00E9483
:10053000420181112FC00E944E01882359F10E946F
:100540005A01882339F10E946601811123C00E945B
:10055000720181111FC020E04EE650E060E570E0BE
:1005600015C00E944E01882311F30E945A01811187
:10057000DECF0E9466018111DACF0E9472018111E3
:10058000D6CF20E04AE550E068E770E08DEA91E0E0
:100590000C94D3150E944201811116C00E944E0195
:1005A000811112C00E945A0181110EC00E94660181
:1005B000882351F00E947201811106C020E048E7B3
:1005C00050E06AE570E0E2CF0E944201811111C063
:1005D0000E944E0181110DC00E945A01882349F0EA
:1005E0000E946601882329F00E947201882309F481
:1005F000B2CF0E9442018823D9F00E944E01882385
:10060000B9F00E945A01882399F00E94660188235C
:1006100079F00E947201882359F022E050E040E016
:1006200070E060E08DEA91E00E94D31510920A011B
:10063000089522E050E040E070E060E08DEA91E053
:100640000E94D3152FEF89E698E121508040904019
:10065000E1F700C0000020E046E950E06CE870E0FF
:100660008DEA91E00E94D3152FEF86E298E32150A6
:1006700080409040E1F700C0000022E050E040E000
:1006800070E060E08DEA91E00E94D3152FEF84E3E3
:100690009CE0215080409040E1F700C0000020E045
:1006A00050E040E066E970E08DEA91E00E94D315E9
:1006B0002FEF8FE097E2215080409040E1F700C09B
:1006C000000022E050E040E070E060E08DEA91E060
:1006D0000E94D3152FEF84E39CE02150804090408E
:1006E000E1F700C0000020E046E950E06CE870E06F
:1006F0008DEA91E00E94D3152FEF83ED90E3215016
:1007000080409040E1F700C0000022E050E040E06F
:1007100070E060E08DEA91E00E94D3152FEF84E352
:100720009CE0215080409040E1F700C0000020E0B4
:1007300046E950E070E060E08DEA91E00E94D31558
:100740002FEF8DE292E2215080409040E1F700C00F
:10075000000022E050E040E070E060E08DEA91E0CF
:100760000E94D3152FEF84E39CE0215080409040FD
:10077000E1F700C000004EE150E06DE270E08CEA6D
:1007800091E00E9407152FEF8DE399E421508040FE
:100790009040E1F700C000008CEA91E00E942B1528
:1007A00020E046E950E070E060E08DEA91E00E94D0
:1007B000D3152FEF8DE292E2215080409040E1F777
:1007C00000C0000022E050E040E070E060E08DEA10
:1007D00091E00E94D3152FEF84E39CE021508040EC
:1007E0009040E1F700C000004EE150E06DE270E0A3
:1007F0008CEA91E00E9407152FEF8DE399E42150D8
:1008000080409040E1F700C000008CEA91E00E9437
:100810002B1520E040EA50E066E970E08DEA91E0B7
:100820000E94D3152FEF8EE994E221508040904032
:10083000E1F700C0000022E050E040E070E060E03E
:100840008DEA91E00E94D3152FEF84E39CE02150C4
:1008500080409040E1F700C000000C944C0222E080
:1008600050E040E070E060E08DEA91E00E94D31536
:100870002FEF89E698E1215080409040E1F700C0D9
:10088000000020E046E950E06CE870E08DEA91E07D
:100890000E94D3152FEF84E493E3215080409040D1
:1008A000E1F700C0000022E050E040E070E060E0CE
:1008B0008DEA91E00E94D3152FEF84E39CE0215054
:1008C00080409040E1F700C0000020E050E040E0B0
:1008D00066E970E08DEA91E00E94D3152FEF8FE07A
:1008E00097E2215080409040E1F700C0000022E0F4
:1008F00050E040E070E060E08DEA91E00E94D315A6
:100900002FEF84E39CE0215080409040E1F700C04D
:10091000000020E046E950E06CE870E08DEA91E0EC
:100920000E94D3152FEF8CEB9FE121508040904027
:10093000E1F700C0000022E050E040E070E060E03D
:100940008DEA91E00E94D3152FEF84E39CE02150C3
:1009500080409040E1F700C0000020E046E950E010
:1009600070E060E08DEA91E00E94D3152FEF8DE2F8
:1009700092E2215080409040E1F700C0000022E068
:1009800050E040E070E060E08DEA91E00E94D31515
:100990002FEF84E39CE0215080409040E1F700C0BD
:1009A00000004EE150E06DE270E08CEA91E00E94C0
:1009B00007152FEF8DE399E4215080409040E1F737
:1009C00000C000008CEA91E00E942B1520E046E96F
:1009D00050E070E060E08DEA91E00E94D3152FEFC7
:1009E0008DE292E2215080409040E1F700C000008B
:1009F00022E050E040E070E060E08DEA91E00E948B
:100A0000D3152FEF84E39CE0215080409040E1F724
:100A100000C000004EE150E06DE270E08CEA91E031
:100A20000E9407152FEF8DE399E4215080409040FC
:100A3000E1F700C000008CEA91E00E942B1520E055
:100A400040EA50E066E970E08DEA91E00E94D3153B
:100A50002FEF8AED9AE1215080409040E1F700C0ED
:100A6000000022E050E040E070E060E08DEA91E0BC
:100A70000E94D3152FEF84E39CE0215080409040EA
:100A8000E1F700C000000C944C0222E050E040E08E
:100A900070E060E08DEA91E00E94D3152FEF89E6C7
:100AA00098E1215080409040E1F700C0000020E034
:100AB00046E950E06CE870E08DEA91E00E94D315C1
:100AC0002FEF84E493E3215080409040E1F700C091
:100AD000000022E050E040E070E060E08DEA91E04C
:100AE0000E94D3152FEF84E39CE02150804090407A
:100AF000E1F700C0000020E050E040E066E970E06F
:100B00008DEA91E00E94D3152FEF8FE097E22150FC
:100B100080409040E1F700C0000022E050E040E05B
:100B200070E060E08DEA91E00E94D3152FEF84E33E
:100B30009CE0215080409040E1F700C0000020E0A0
:100B400046E950E06CE870E08DEA91E00E94D31530
:100B50002FEF87E893E1215080409040E1F700C0FB
:100B6000000022E050E040E070E060E08DEA91E0BB
:100B70000E94D3152FEF84E39CE0215080409040E9
:100B8000E1F700C0000020E046E950E070E060E0DE
:100B90008DEA91E00E94D3152FEF8DE292E2215071
:100BA00080409040E1F700C0000022E050E040E0CB
:100BB00070E060E08DEA91E00E94D3152FEF84E3AE
:100BC0009CE0215080409040E1F700C000004EE1E1
:100BD00050E06DE270E08CEA91E00E9407152FEF83
:100BE0008DE399E4215080409040E1F700C000007F
:100BF0008CEA91E00E942B1520E046E950E070E07D
:100C000060E08DEA91E00E94D3152FEF8DE292E231
:100C1000215080409040E1F700C0000022E050E009
:100C200040E070E060E08DEA91E00E94D3152FEF84
:100C300084E39CE0215080409040E1F700C0000038
:100C40004EE150E06DE270E08CEA91E00E94071501
:100C50002FEF8DE399E4215080409040E1F700C0F0
:100C600000008CEA91E00E942B1520E040EA50E061
:100C700066E970E08DEA91E00E94D3152FE78FE4DA
:100C800092E1215080409040E1F700C0000022E056
:100C900050E040E070E060E08DEA91E00E94D31502
:100CA0002FEF84E39CE0215080409040E1F700C0AA
:100CB00000000C944C0222E050E040E070E060E064
:100CC0008DEA91E00E94D3152FEF89E698E121503B
:100CD00080409040E1F700C0000020E046E950E08D
:100CE0006CE870E08DEA91E00E94D3152FE787ED64
:100CF00095E2215080409040E1F700C0000022E0E2
:100D000050E040E070E060E08DEA91E00E94D31591
:100D10002FEF84E39CE0215080409040E1F700C039
:100D2000000020E050E040E066E970E08DEA91E0EC
:100D30000E94D3152FEF8FE097E221508040904022
:100D4000E1F700C0000022E050E040E070E060E029
:100D50008DEA91E00E94D3152FEF84E39CE02150AF
:100D600080409040E1F700C0000020E046E950E0FC
:100D70006CE870E08DEA91E00E94D3152FEF83EDCF
:100D800090E3215080409040E1F700C0000022E055
:100D900050E040E070E060E08DEA91E00E94D31501
:100DA0002FEF84E39CE0215080409040E1F700C0A9
:100DB000000020E046E950E070E060E08DEA91E05C
:100DC0000E94D3152FEF8DE292E221508040904097
:100DD000E1F700C0000022E050E040E070E060E099
:100DE0008DEA91E00E94D3152FEF84E39CE021501F
:100DF00080409040E1F700C000004EE150E06DE21D
:100E000070E08CEA91E00E9407152FEF8DE399E4E2
:100E1000215080409040E1F700C000008CEA91E052
:100E20000E942B1520E046E950E070E060E08DEA7A
:100E300091E00E94D3152FEF8DE292E22150804085
:100E40009040E1F700C0000022E050E040E070E098
:100E500060E08DEA91E00E94D3152FEF84E39CE0DF
:100E6000215080409040E1F700C000004EE150E08A
:100E70006DE270E08CEA91E00E9407152FEF8DE3A0
:100E800099E4215080409040E1F700C000008CEAD6
:100E900091E00E942B1520E040EA50E06CE870E001
:100EA0008DEA91E00E94D3152FEF8EE994E2215054
:100EB00080409040E1F700C0000022E050E040E0B8
:100EC00070E060E08DEA91E00E94D3152FEF84E39B
:100ED0009CE0215080409040E1F700C000000C945D
:100EE0004C0222E050E040E070E060E08DEA91E0EA
:100EF0000E94D3152FEF89E698E121508040904061
:100F0000E1F700C0000020E046E950E06CE870E046
:100F10008DEA91E00E94D3152FEF80E899E22150ED
:100F200080409040E1F700C0000022E050E040E047
:100F300070E060E08DEA91E00E94D3152FEF84E32A
:100F40009CE0215080409040E1F700C0000020E08C
:100F500050E040E066E970E08DEA91E00E94D31530
:100F60002FEF8FE097E2215080409040E1F700C0E2
:100F7000000022E050E040E070E060E08DEA91E0A7
:100F80000E94D3152FEF84E39CE0215080409040D5
:100F9000E1F700C0000020E046E950E06CE870E0B6
:100FA0008DEA91E00E94D3152FEF8DE292E221505D
:100FB00080409040E1F700C0000022E050E040E0B7
:100FC00070E060E08DEA91E00E94D3152FEF84E39A
:100FD0009CE0215080409040E1F700C0000020E0FC
:100FE00046E950E070E060E08DEA91E00E94D315A0
:100FF0002FEF8DE292E2215080409040E1F700C057
:10100000000022E050E040E070E060E08DEA91E016
:101010000E94D3152FEF84E39CE021508040904044
:10102000E1F700C000004EE150E06DE270E08CEAB4
:1010300091E00E9407152FEF8DE399E42150804045
:101040009040E1F700C000008CEA91E00E942B156F
:1010500020E046E950E070E060E08DEA91E00E9417
:10106000D3152FEF8DE292E2215080409040E1F7BE
:1010700000C0000022E050E040E070E060E08DEA57
:1010800091E00E94D3152FEF84E39CE02150804033
:101090009040E1F700C000004EE150E06DE270E0EA
:1010A0008CEA91E00E9407152FEF8DE399E421501F
:1010B00080409040E1F700C000008CEA91E00E947F
:1010C0002B1520E04CE850E060EA70E08DEA91E0FA
:1010D0000E94D3152FEF89E698E12150804090407F
:1010E000E1F700C0000022E050E040E070E060E086
:1010F0008DEA91E00E94D3152FEF84E39CE021500C
:1011000080409040E1F700C000000C944C0222E0C7
:1011100050E040E070E060E08DEA91E00E94D3157D
:101120002FEF89E698E1215080409040E1F700C020
:10113000000020E046E950E06CE870E08DEA91E0C4
:101140000E94D3152FE788E498E221508040904018
:10115000E1F700C0000022E050E040E070E060E015
:101160008DEA91E00E94D3152FEF84E39CE021509B
:1011700080409040E1F700C0000020E050E040E0F7
:1011800066E970E08DEA91E00E94D3152FEF8FE0C1
:1011900097E2215080409040E1F700C0000022E03B
:1011A00050E040E070E060E08DEA91E00E94D315ED
:1011B0002FEF84E39CE0215080409040E1F700C095
:1011C000000020E046E950E06CE870E08DEA91E034
:1011D0000E94D3152FEF86E191E12150804090408D
:1011E000E1F700C0000022E050E040E070E060E085
:1011F0008DEA91E00E94D3152FEF84E39CE021500B
:1012000080409040E1F700C0000020E046E950E057
:1012100070E060E08DEA91E00E94D3152FEF8DE23F
:1012200092E2215080409040E1F700C0000022E0AF
:1012300050E040E070E060E08DEA91E00E94D3155C
:101240002FEF84E39CE0215080409040E1F700C004
:1012500000004EE150E06DE270E08CEA91E00E9407
:1012600007152FEF8DE399E4215080409040E1F77E
:1012700000C000008CEA91E00E942B1520E046E9B6
:1012800050E070E060E08DEA91E00E94D3152FEF0E
:101290008DE292E2215080409040E1F700C00000D2
:1012A00022E050E040E070E060E08DEA91E00E94D2
:1012B000D3152FEF84E39CE0215080409040E1F76C
:1012C00000C000004EE150E06DE270E08CEA91E079
:1012D0000E9407152FEF8DE399E421508040904044
:1012E000E1F700C000008CEA91E00E942B1520E09D
:1012F00048E750E066E970E08DEA91E00E94D3157E
:101300002FEF8EE994E2215080409040E1F700C039
:10131000000022E050E040E070E060E08DEA91E003
:101320000E94D3152FEF84E39CE021508040904031
:10133000E1F700C000000C944C0222E050E040E0D5
:1013400070E060E08DEA91E00E94D3152FEF89E60E
:1013500098E1215080409040E1F700C0000020E07B
:1013600046E950E06CE870E08DEA91E00E94D31508
:101370002FEF88EF95E1215080409040E1F700C0C9
:10138000000022E050E040E070E060E08DEA91E093
:101390000E94D3152FEF84E39CE0215080409040C1
:1013A000E1F700C0000020E050E040E066E970E0B6
:1013B0008DEA91E00E94D3152FE786E693E2215053
:1013C00080409040E1F700C0000022E050E040E0A3
:1013D00070E060E08DEA91E00E94D3152FEF84E386
:1013E0009CE0215080409040E1F700C0000020E0E8
:1013F00046E950E066E970E08DEA91E00E94D3157D
:101400002FEF83ED90E3215080409040E1F700C042
:10141000000022E050E040E070E060E08DEA91E002
:101420000E94D3152FEF84E39CE021508040904030
:10143000E1F700C0000020E046E950E070E060E025
:101440008DEA91E00E94D3152FEF8DE292E22150B8
:1014500080409040E1F700C0000022E050E040E012
:1014600070E060E08DEA91E00E94D3152FEF84E3F5
:101470009CE0215080409040E1F700C000004EE128
:1014800050E06DE270E08CEA91E00E9407152FEFCA
:101490008DE399E4215080409040E1F700C00000C6
:1014A0008CEA91E00E942B1520E046E950E070E0C4
:1014B00060E08DEA91E00E94D3152FEF8DE292E279
:1014C000215080409040E1F700C0000022E050E051
:1014D00040E070E060E08DEA91E00E94D3152FEFCC
:1014E00084E39CE0215080409040E1F700C0000080
:1014F0004EE150E06DE270E08CEA91E00E94071549
:101500002FEF8DE399E4215080409040E1F700C037
:1015100000008CEA91E00E942B1520E046E950E0A3
:1015200060EA70E08DEA91E00E94D3152FEF88E029
:101530009DE3215080409040E1F700C0000022E090
:1015400050E040E070E060E08DEA91E00E94D31549
:101550002FEF84E39CE0215080409040E1F700C0F1
:1015600000000C944C0222E050E040E070E060E0AB
:101570008DEA91E00E94D3152FEF89E698E1215082
:1015800080409040E1F700C0000020E046E950E0D4
:101590006CE870E08DEA91E00E94D3152FEF88EFA0
:1015A00095E1215080409040E1F700C0000022E02A
:1015B00050E040E070E060E08DEA91E00E94D315D9
:1015C0002FEF84E39CE0215080409040E1F700C081
:1015D000000020E050E040E066E970E08DEA91E034
:1015E0000E94D3152FEF8FE097E22150804090406A
:1015F000E1F700C0000022E050E040E070E060E071
:101600008DEA91E00E94D3152FEF84E39CE02150F6
:1016100080409040E1F700C0000020E046E950E043
:101620006EE870E08DEA91E00E94D3152FEF8DE215
:1016300092E2215080409040E1F700C0000022E09B
:1016400050E040E070E060E08DEA91E00E94D31548
:101650002FEF84E39CE0215080409040E1F700C0F0
:10166000000020E046E950E070E060E08DEA91E0A3
:101670000E94D3152FEF8DE292E2215080409040DE
:10168000E1F700C0000022E050E040E070E060E0E0
:101690008DEA91E00E94D3152FEF84E39CE0215066
:1016A00080409040E1F700C000004EE150E06DE264
:1016B00070E08CEA91E00E9407152FEF8DE399E42A
:1016C000215080409040E1F700C000008CEA91E09A
:1016D0000E942B1520E046E950E070E060E08DEAC2
:1016E00091E00E94D3152FEF8DE292E221508040CD
:1016F0009040E1F700C0000022E050E040E070E0E0
:1017000060E08DEA91E00E94D3152FEF84E39CE026
:10171000215080409040E1F700C000004EE150E0D1
:101720006DE270E08CEA91E00E9407152FEF8DE3E7
:1017300099E4215080409040E1F700C000008CEA1D
:1017400091E00E942B1520E042E850E060EA70E052
:101750008DEA91E00E94D3152FEF87E99AE321509B
:1017600080409040E1F700C0000022E050E040E0FF
:1017700070E060E08DEA91E00E94D3152FEF84E3E2
:101780009CE0215080409040E1F700C000000C94A4
:101790004C0222E050E040E070E060E08DEA91E031
:1017A0000E94D3152FEF89E698E1215080409040A8
:1017B000E1F700C0000020E046E950E06CE870E08E
:1017C0008DEA91E00E94D3152FEF88EF95E121502B
:1017D00080409040E1F700C0000022E050E040E08F
:1017E00070E060E08DEA91E00E94D3152FEF84E372
:1017F0009CE0215080409040E1F700C0000020E0D4
:1018000050E040E066E970E08DEA91E00E94D31577
:101810002FEF8FE097E2215080409040E1F700C029
:10182000000022E050E040E070E060E08DEA91E0EE
:101830000E94D3152FEF84E39CE02150804090401C
:10184000E1F700C0000020E046E950E06EE870E0FB
:101850008DEA91E00E94D3152FEF87E893E12150A4
:1018600080409040E1F700C0000022E050E040E0FE
:1018700070E060E08DEA91E00E94D3152FEF84E3E1
:101880009CE0215080409040E1F700C0000020E043
:1018900046E950E070E060E08DEA91E00E94D315E7
:1018A0002FEF8DE292E2215080409040E1F700C09E
:1018B000000022E050E040E070E060E08DEA91E05E
:1018C0000E94D3152FEF84E39CE02150804090408C
:1018D000E1F700C000004EE150E06DE270E08CEAFC
:1018E00091E00E9407152FEF8DE399E4215080408D
:1018F0009040E1F700C000008CEA91E00E942B15B7
:1019000020E046E950E070E060E08DEA91E00E945E
:10191000D3152FEF8DE292E2215080409040E1F705
:1019200000C0000022E050E040E070E060E08DEA9E
:1019300091E00E94D3152FEF84E39CE0215080407A
:101940009040E1F700C000004EE150E06DE270E031
:101950008CEA91E00E9407152FEF8DE399E4215066
:1019600080409040E1F700C000008CEA91E00E94C6
:101970002B1520E046E950E06CE870E08DEA91E03C
:101980000E94D3152FEF8EE994E2215080409040C1
:10199000E1F700C0000022E050E040E070E060E0CD
:1019A0008DEA91E00E94D3152FEF84E39CE0215053
:1019B00080409040E1F700C0000020E050E040E0AF
:1019C00066E970E08DEA91E00E94D3152FEF8EE971
:1019D00094E2215080409040E1F700C0000022E0F6
:1019E00050E040E070E060E08DEA91E00E94D315A5
:1019F0002FEF84E39CE0215080409040E1F700C04D
:101A0000000020E046E950E06CE870E08DEA91E0EB
:101A10000E94D3152FEF8EE994E221508040904030
:101A2000E1F700C000000C944C0201978930910549
:101A300000F5FC01E25EF24F0C948416270D290D8F
:101A40002B0D2D0D2F0D310D330D350D370D0C9444
:101A500019030C942F040C9445050C945B060C940C
:101A600071070C9487080C949D090C94B30A0C948C
:101A7000C90B08950E944201811114C00E944E01B9
:101A8000811110C00E945A01882361F00E946601F2
:101A9000811108C00E94720120E042E850E08823D2
:101AA00009F449C00E944201882391F10E94420139
:101AB000811147C00E944201811110C00E944E0155
:101AC000882361F00E945A01882341F00E94660138
:101AD000811104C00E947201882351F10E944201C9
:101AE000811140C00E944E0181113CC00E945A01E8
:101AF000811138C00E9466018823A1F10E94720101
:101B0000811130C020E042E850E06AE570E015C085
:101B10000E944E01882351F20E945A018111C6CFC2
:101B20000E9466018111C2CF0E9472018111BECF55
:101B300020E04AE550E062E870E08DEA91E00C9424
:101B4000D3150E944E018111B5CF0E945A01811117
:101B5000B1CF0E9466018111ADCF0E947201811147
:101B6000A9CFE6CF0E944201811116C00E944E010A
:101B7000811112C00E945A01882371F00E946601EF
:101B8000882351F00E947201811106C020E042E8D2
:101B900050E060E570E0D1CF0E944201882321F13E
:101BA0000E944E01882301F10E945A018823E1F02E
:101BB0000E946601811118C00E947201811114C037
:101BC00022E050E040E070E060E08DEA91E00E94A9
:101BD000D3152FEF84E39CE0215080409040E1F743
:101BE00000C000001092090108950E944201811175
:101BF00015C00E944E01811111C00E945A01882314
:101C000069F00E946601811109C00E94720120E002
:101C100042E850E062E870E0882399F10E944201B6
:101C20008823D1F00E94420181112FC00E944E01F1
:101C300081112BC00E945A01811127C00E946601A8
:101C4000882319F10E94720181111FC020E04EE625
:101C500050E066E470E015C00E944E01882311F345
:101C60000E945A018111DECF0E9466018111DACFF4
:101C70000E9472018111D6CF20E046E450E06EE66A
:101C800070E08DEA91E00C94D3150E94420181111D
:101C90004CC00E94420181115CC00E944E01811122
:101CA00058C00E945A01882309F453C00E9466015B
:101CB000882309F44EC00E947201882309F449C0A8
:101CC00020E042E850E062E870E08DEA91E00E9496
:101CD000D3152FEF85EA9EE0215080409040E1F738
:101CE00000C0000020E044E650E070E060E08DEAD3
:101CF00091E00E94D3150E9442018111F3CF0E940E
:101D00004E018111EFCF0E945A01882359F30E949E
:101D100066018111E7CF0E9472018111E3CF22E0B9
:101D200050E040E070E060E0ACCF0E944E018111D5
:101D3000B0CF0E945A018111ACCF0E94660181117F
:101D4000A8CF0E9472018111A4CF20E04FE050E0A3
:101D500080CF0E9442018823D9F00E944E0188233F
:101D6000B9F00E945A01882399F00E9466018111FE
:101D70000FC00E94720181110BC022E050E040E0D0
:101D800070E060E08DEA91E00E94D31510920801A6
:101D900008950E944201811113C00E944E018111D9
:101DA0000FC00E945A01882359F00E9466018111D8
:101DB00007C00E94720120E046E950E0882399F1B3
:101DC0000E9442018823E1F00E944201811131C04A
:101DD0000E944201811141C00E944E018823E9F115
:101DE0000E945A018823C9F10E946601811135C001
:101DF0000E947201811131C020E04EE650E013C014
:101E00000E944E01882301F30E945A018111DCCF08
:101E10000E9466018111D8CF0E9472018111D4CF36
:101E200020E044E650E066E970E08DEA91E00C9431
:101E3000D3150E944E018111CBCF0E945A0181110E
:101E4000C7CF0E9466018111C3CF0E947201811128
:101E5000BFCF20E04AE550E0E6CF0E944201811169
:101E600016C00E944E01811112C00E945A018111B8
:101E70000EC00E946601882351F00E9472018111F8
:101E800006C020E046E950E064E670E0CECF0E9454
:101E90004201811116C00E944E01811112C00E94A0
:101EA0005A01882371F00E946601882351F00E9434
:101EB0007201811106C020E046E950E06EE670E054
:101EC000B4CF0E944201811114C00E944E018823A8
:101ED00081F00E945A01882361F00E9466018823E4
:101EE00041F00E947201811104C020E04CE350E0F7
:101EF000E5CF0E9442018823D9F00E944E01882339
:101F0000B9F00E945A01882399F00E946601882343
:101F100079F00E947201882359F022E050E040E0FD
:101F200070E060E08DEA91E00E94D3151092070105
:101F300008950E944201882309F443C00E944E0183
:101F4000882309F43EC00E945A018823D1F10E94DF
:101F50006601811136C00E947201811132C08FE189
:101F60009EE40197F1F700C000000E94420188231F
:101F700009F48DC00E944E01882309F488C00E9494
:101F80005A01882309F483C00E94660181117FC031
:101F90000E94720181117BC020E04AEA50E060EAB1
:101FA00070E08DEA91E00E94D31581E08093A50155
:101FB0008091A401882309F46AC08091A6018E5FF4
:101FC00006C10E944201811139C00E944201811163
:101FD0005FC00E944E0181115BC00E945A0188239C
:101FE00009F456C00E946601811152C00E9472011C
:101FF00081114EC08FE19EE40197F1F700C000000F
:102000000E944201811143C00E944E0181113FC0D4
:102010000E945A018823D9F10E946601811137C0BC
:102020000E947201811133C020E04AEA50E060EA68
:1020300070E08DEA91E00E94D315BACF0E944E0164
:10204000882309F4C2CF0E945A01882309F4BDCF26
:102050000E946601882309F4B8CF0E9472018111A1
:10206000B4CF8FE19EE40197F1F700C000000E9419
:102070004201882361F00E944E01882341F00E94B2
:102080005A01882321F00E946601811181CF0895B1
:102090000E944201811136C00E944E01811132C05E
:1020A0000E945A01882371F10E946601882351F130
:1020B0000E947201882331F18FE19EE40197F1F7CC
:1020C00000C000000E9442018111E1CF0E944E0138
:1020D0008111DDCF0E945A018823C9F20E94660156
:1020E0008823A9F20E947201882389F220E04AEA3B
:1020F00050E060EA70E08DEA91E00E94D315109202
:10210000A50156CF0E944201811120C00E944E01BC
:102110008823E1F00E945A018823C1F00E946601E1
:102120008823A1F00E947201882381F08FE19EE450
:102130000197F1F700C000000E9442018111A7CF72
:102140000E944E01882309F4A2CFC4CF0E9442010D
:10215000811140C00E944E01882309F43BC00E94B7
:102160005A01811137C00E946601811133C00E945B
:10217000720181112FC08FE19EE40197F1F700C039
:1021800000000E944201811182CF0E944E018823EB
:1021900009F47DCF0E945A01811179CF0E94660116
:1021A000811175CF0E94720120E040E550E060EAA5
:1021B00070E081116CCF8DEA91E00E94D31580917F
:1021C000A401882309F463CF8091A6018F5F8093D7
:1021D000A60108950E944201811131C00E944E0162
:1021E00081112DC00E945A01811129C00E946601EF
:1021F000882329F10E947201811121C08FE19EE4A0
:102200000197F1F700C000000E94420181113FCF09
:102210000E944E0181113BCF0E945A01811137CF9C
:102220000E946601882309F432CF0E947201811155
:102230002ECF20E04AEA50E060E570E0BCCF0E947B
:102240004201811147C00E944201811120CF0E94AA
:102250004E0181111CCF0E945A01811118CF0E949A
:102260006601811114CF0E947201811110CF9FEF7E
:1022700020E782E0915020408040E1F700C000005C
:102280000E944201811103CF0E944E018111FFCEB5
:102290000E945A018111FBCE0E9466018111F7CE86
:1022A0000E9472018111F3CE22E050E040E070E024
:1022B00060E08DEA91E00E94D3158091A601909193
:1022C000A501873908F446C0992309F451C084E078
:1022D00088B94BC00E944E01882309F4B4CF0E94F4
:1022E0005A01882309F4AFCF0E946601882309F4BC
:1022F000AACF0E947201882309F4A5CF8FE19EE442
:102300000197F1F700C000000E944201882309F400
:10231000BECE0E944E01882309F4B9CE0E945A0114
:10232000882309F4B4CE0E946601882309F4AFCE55
:102330000E947201882309F4AACE20E04AEA50E004
:1023400060EA70E08DEA91E00E94D31581E080930D
:10235000A40133CE863939F088E09111B9CF82E0FB
:10236000B7CF81E0B5CF9923D1F31092060108953C
:10237000813AB8F7803A99F7F8CF0E94420181116B
:1023800014C00E944E01811110C00E945A0188237E
:1023900061F00E946601811108C00E94720120E074
:1023A00042E850E0882309F449C00E944201882392
:1023B00091F10E944201811147C00E9442018111A6
:1023C00010C00E944E01882361F00E945A018823A8
:1023D00041F00E946601811104C00E9472018823AD
:1023E00051F10E944201811140C00E944E018111B1
:1023F0003CC00E945A01811138C00E9466018823A6
:10240000A1F10E947201811130C020E042E850E049
:102410006AE570E015C00E944E01882351F20E94C7
:102420005A018111C6CF0E9466018111C2CF0E945C
:1024300072018111BECF20E04AE550E062E870E011
:102440008DEA91E00C94D3150E944E018111B5CF15
:102450000E945A018111B1CF0E9466018111ADCF56
:102460000E9472018111A9CFE6CF0E944201811121
:1024700016C00E944E01811112C00E945A01882389
:1024800071F00E946601882351F00E94720181114F
:1024900006C020E042E850E060E570E0D1CF0E9445
:1024A0004201882321F10E944E01882301F10E94FC
:1024B0005A018823E1F00E946601811118C00E9430
:1024C0007201811114C022E050E040E070E060E051
:1024D0008DEA91E00E94D3152FEF84E39CE0215018
:1024E00080409040E1F700C000001092050108957F
:1024F0000E944201811114C00E944E01811110C03E
:102500000E945A01882361F00E946601811108C06F
:102510000E947201811104C020E042E850E034C002
:102520000E9442018823E9F00E94420181112FC0DC
:102530000E944E0181112BC00E945A01811127C0B7
:102540000E946601882319F10E94720181111FC047
:1025500020E042E850E06AE570E08DEA91E00C94FA
:10256000D3150E944E018823F9F20E945A0181116D
:10257000DBCF0E9466018111D7CF0E9472018111C9
:10258000D3CF20E04AE550E062E870E0E6CF0E9459
:102590004201811176C00E9442018111BDC00E949A
:1025A0004201811110C00E944E0181110CC00E9495
:1025B0005A01811108C00E946601811104C00E9465
:1025C00072018111DECF0E944201811111C00E946F
:1025D0004E0181110DC00E945A01811109C00E9453
:1025E0006601811105C00E947201882309F494CF0D
:1025F0000E9442018111A1C00E9442018111DBC0F1
:102600000E944201882309F412C10E944E018823CE
:1026100009F40DC10E945A01811109C10E9466018D
:10262000811105C10E947201811101C120E050E0B9
:1026300040E070E060E08DEA91E00E94D3159FEFEA
:1026400020E782E0915020408040E1F700C0000088
:102650000E944201882309F4EAC00E944E018823A7
:1026600009F4E5C00E945A018111E1C00E9466018F
:102670008111DDC00E9472018111D9C01092040144
:10268000E7CF0E944E01882309F485CF0E945A01AA
:10269000882309F480CF0E946601882309F47BCF48
:1026A0000E947201882309F476CF41E050E06DE288
:1026B00070E08CEA91E00E9407152FE788E391E033
:1026C000215080409040E1F700C000008CEA91E08A
:1026D0000E942B158FE39CE90197F1F700C00000E1
:1026E00041E050E06DE270E08CEA91E00E94071555
:1026F0009FE728E381E0915020408040E1F700C04F
:1027000000008CEA91E00E942B158FE39CE9019771
:10271000F1F700C0000000CF0E944E0181113FCFB1
:102720000E945A0181113BCF0E946601811137CF6F
:102730000E947201811133CF0BCF0E944E0188237A
:1027400009F45ACF0E945A01882309F455CF0E94F8
:102750006601811151CF0E94720181114DCF20E09D
:1027600050E040E070E060E08DEA91E00E94D31517
:102770009FEF20E782E0915020408040E1F700C0C9
:1027800000000E944201882309F451C00E944E01BA
:10279000882309F44CC00E945A01882309F447C0D9
:1027A0000E946601811143C00E94720181113FC0E5
:1027B00010920401E6CF0E944E01882309F420CF35
:1027C0000E945A01882309F41BCF0E9466018823C6
:1027D00009F416CF0E947201811112CF20E050E05F
:1027E00040E070E060E08DEA91E00E94D3159FEF39
:1027F00020E782E0915020408040E1F700C00000D7
:102800000E944201882399F00E944E01882379F0AA
:102810000E945A01882359F00E946601882339F0EA
:102820000E947201811103C010920401E9CF089542
:1028300080910A01882329F00E947E010E947C0277
:10284000F7CF089580910901882329F00E947E0125
:102850000E943A0DF7CF089580910801882329F04E
:102860000E947E010E94F50DF7CF08958091070127
:10287000882329F00E947E010E94C90EF7CF089597
:1028800080910601882329F00E947E010E94990F01
:10289000F7CF089580910501882329F00E947E01D9
:1028A0000E94BD11F7CF089580910401882329F07B
:1028B0000E947E010E947812F7CF08951F93CF9354
:1028C000DF931092A101C2E0D0E011E0C630D10543
:1028D00009F462C082309105C9F144F58130910557
:1028E000A9F70E9418148091A0018823E1F32FEF2B
:1028F00087EA91E6215080409040E1F700C0000057
:102900008091A10190E00E94150D1092A1010E94FA
:102910002214C530D10521F00E940A021093A201B1
:102920001092A30182E090E02196D0CF83309105F0
:10293000B9F08430910551F60E945414C530D10588
:1029400011F00E94B60181E090E0EECF0E942C14BD
:10295000C530D10511F00E940A0283E090E0E4CF77
:102960000E9436148091A1018823E1F30E94401453
:102970008091A1018130E1F30E944A141092A101DB
:10298000C530D10521F00E940A021093A3011092D4
:10299000A20184E090E0C8CFDF91CF911F9108950C
:1029A0008130910561F481E088B92FEF8DE399E4DE
:1029B000215080409040E1F700C00000089582302F
:1029C000910511F482E0F0CF8330910511F484E099
:1029D000EBCF049799F788E0E7CF8AEA91E00E946D
:1029E000761541E050E06DE270E08CEA91E00E94E3
:1029F00007152FEF83ED90E3215080409040E1F7E1
:102A000000C000008CEA91E00C942B150895CF9340
:102A1000DF9384B5826084BD84B5806484BD85B550
:102A2000846085BD660F771F660F771FEB01C95A5B
:102A3000DF4FBA01550F880B990B0E94BB162881F6
:102A400039814A815B810E941F170E948A1667BDE7
:102A5000DF91CF91089584B514BC089510927C0045
:102A600086E880937A00089510927A000895809104
:102A70007C00807E80937C0080917C006770682B56
:102A800060937C0080917A00806480937A008091CA
:102A90007A0084FFFCCF80917A00806180937A0075
:102AA0002091780090917900892F90E0982F8827C5
:102AB000820F911D0895FC0111821082089521E07A
:102AC000FC01218310821092B2006093B300E0EB0E
:102AD000F0E080818083E1EBF0E080818F60808393
:102AE000E0E7F0E08081826080830895EEE6F0E028
:102AF000808180830895FC0180810895FC0181819B
:102B0000089521E0FC0120830895FC01108224E057
:102B100030E032832183089529B130E0FC01418106
:102B2000528124233523232B81F0E3ECF9E0319704
:102B3000F1F700C0000029B130E0FC0181819281F1
:102B40002823392381E0232B09F480E00895F894A9
:102B5000E89AE9E6F0E080818160808378940895C6
:102B6000FC0180810895FC018181928108952FEFFD
:102B700030E0FC013183208380EF8AB91092890014
:102B80001092880010928B0010928A00E0E8F0E02A
:102B90008081816A8083E1E8F0E0808182608083C7
:102BA000109282000895CF93DF936F3F710510F06C
:102BB0006EEF70E0EA014F3F510510F0CEEFD0E02C
:102BC000223009F449C038F4222399F0213059F118
:102BD000DF91CF910895233009F44BC02430C1F721
:102BE00080E48BB980E28BB9109289001092880042
:102BF0002EC080E48BB980E28BB97093890060931A
:102C00008800BE0190E080E00E94B91627ED33EA0B
:102C100040E75FE30E941F170E948A1670938B00A3
:102C200060938A00D5CF8FEB8BB98FED8BB990E095
:102C300080E00E94B9162FE135E84BE65FE30E9481
:102C40001F170E948A167093890060938800D093A2
:102C50008B00C0938A00BCCF80E48BB980E28BB933
:102C6000109289001092880010928B0010928A00B6
:102C7000AFCF80E48BB980E28BB970938900609309
:102C80008800F2CF0E943B0187EA91E00E94A715DD
:102C90008091A0018823E1F3109201018091A101AC
:102CA0008130B1F08091A101843090F481E0809373
:102CB000A2018091A10190E00E94D0148091A10115
:102CC00090E00E945E140E94ED1490E080E0089570
:102CD00081E08093A301EDCF8FEA91E00E942E1551
:102CE0008DEA91E00E94B7158CEA91E00E940615EA
:102CF0008AEA91E00E945B1587EA91E00C948515C1
:102D00008FEA91E00C943415EE0FFF1F0590F491BB
:102D1000E02D09940E94FE1688F09F5798F0B92F75
:102D20009927B751B0F0E1F0660F771F881F991F00
:102D30001AF0BA95C9F714C0B13091F00E94181773
:102D4000B1E008950C941817672F782F8827B85F83
:102D500039F0B93FCCF3869577956795B395D9F758
:102D60003EF490958095709561957F4F8F4F9F4F62
:102D70000895E89409C097FB3EF49095809570956E
:102D800061957F4F8F4F9F4F9923A9F0F92F96E9B7
:102D9000BB279395F695879577956795B795F1112C
:102DA000F8CFFAF4BB0F11F460FF1BC06F5F7F4FC9
:102DB0008F4F9F4F16C0882311F096E911C07723DB
:102DC00021F09EE8872F762F05C0662371F096E8E4
:102DD000862F70E060E02AF09A95660F771F881FB3
:102DE000DAF7880F9695879597F9089557FD9058CB
:102DF000440F551F59F05F3F71F04795880F97FBBF
:102E0000991F61F09F3F79F0879508951216130678
:102E10001406551FF2CF4695F1DF08C016161706A7
:102E20001806991FF1CF86957105610508940895DC
:102E3000E894BB2766277727CB0197F908950E946E
:102E400032170C94A3170E94951738F00E949C1714
:102E500020F0952311F00C948C170C9492171124E8
:102E60000C9419170E94F61670F3959FC1F3950FF5
:102E700050E0551F629FF001729FBB27F00DB11DFE
:102E8000639FAA27F00DB11DAA1F649F6627B00D8E
:102E9000A11D661F829F2227B00DA11D621F739F77
:102EA000B00DA11D621F839FA00D611D221F749F85
:102EB0003327A00D611D231F849F600D211D822FCC
:102EC000762F6A2F11249F5750409AF0F1F08823F3
:102ED0004AF0EE0FFF1FBB1F661F771F881F915020
:102EE0005040A9F79E3F510580F00C948C170C942C
:102EF00019175F3FE4F3983ED4F38695779567956D
:102F0000B795F795E7959F5FC1F7FE2B880F911D49
:102F10009695879597F9089597F99F6780E870E0EF
:102F200060E008959FEF80EC089500240A9416163F
:102F3000170618060906089500240A9412161306A7
:102F4000140605060895092E0394000C11F4882335
:102F500052F0BB0F40F4BF2B11F460FF04C06F5F51
:102F60007F4F8F4F9F4F089510E0CFE3D0E004C014
:102F7000FE010E9484162196C034D107C9F7F89447
:022F8000FFCF81
:102F820096010101010101010101015D749140728B
:102F92004A8940D4958140D99F74400BE5664082AE
:102FA200EF59402CB44D4095284240E1423740C091
:102FB200F92C40684423408E1A1A405D7411407205
:102FC2004A0940D4950140D99FF43F0BE5E63F8280
:102FD200EFD93F2CB4CD3F9528C23FE142B73FC065
:102FE200F9AC3F6844A33F8E1A9A3F5D74913F72D9
:102FF2004A893FD495813FD99F743F0BE5663F8252
:10300200EF593F2CB44D3F9528423FE142373FC034
:10301200F92C3F6844233F8E1A1A3F5D74113F001A
:00000001FF
