:100000000C9440000C94A0030C9468000C946800BD
:100010000C9468000C9468000C9468000C946800C0
:100020000C9468000C9468000C9468000C946800B0
:100030000C9468000C9462030C9468000C946800A3
:100040000C9468000C9468000C9468000C94680090
:100050000C9468000C9468000C9468000C94680080
:100060000C9468000C9468000C9468000C94680070
:100070000C9468000C9468000C946800FF050B0653
:1000800011241FBECFEFD8E0DEBFCDBF11E0A0E04E
:10009000B1E0E4E4FCE002C005900D92A230B107AB
:1000A000D9F721E0A2E0B1E001C01D92AE31B20764
:1000B000E1F710E0CFE3D0E004C02197FE010E94F9
:1000C0000F06CE33D107C9F70E9464050C941506BC
:1000D0000C940000FC0111821082089521E0FC01C3
:1000E0002183108216BC67BD84B5826C84BD85B542
:1000F000856085BDEEE6F0E0808182608083789443
:100100000895FC0180810895FC018181089521E01A
:10011000FC0120830895CF93C82F82ED90E00E94C8
:100120005703C13391F48FE599E00197F1F700C0CF
:10013000000090E080E00E9457038FEA94E001976E
:10014000F1F700C00000CF910895C03329F48FEA81
:1001500094E00197F1F7EBCFC33559F78FEB92E1BC
:100160000197F1F7E4CFCF93DF93EC010E946A008F
:10017000CE0107960E947A011A821B821C821E827F
:100180001D821A86DF91CF910895CF93C62F82EDFD
:1001900090E00E945703C13391F48FE599E00197F5
:1001A000F1F700C0000090E080E00E9457038FEA62
:1001B00094E00197F1F700C00000CF910895C0339B
:1001C00029F48FEA94E00197F1F7EBCFC33559F7A3
:1001D0008FEB92E10197F1F7E4CFEF92FF921F933B
:1001E000CF93DF93EC018FEF84B9CE0107960E9485
:1001F0009C018B818823E9F311E08A85811172C00B
:10020000CE010E9481008823C1F383E50E948B0008
:10021000ED81FE813197E930F10558F5EE5EFE4F34
:100220000C940F062B0149015F01610169016E0108
:1002300026011B01700180E30E948B0080E30E9475
:100240008B0080E30E948B0081E32DC081E30E943C
:100250008B0081E33AC081E30E948B0086E0E82EA8
:10026000F12C80E30E948B0081E0E81AF108C9F7C5
:100270001A8781E30E948B0080E30E948B0080E359
:100280000E948B0080E30E948B0080E30E948B0021
:10029000B4CF80E30E948B0081E30E948B0080E357
:1002A0000E948B0080E30E948B0080E30E948B0001
:1002B00080E30E948B0080E30E948B00D9CF81E312
:1002C000E9CF80E30E948B0080E30E948B0081E3F2
:1002D000E7CF83E50E948B0081E3F4CF80E3B7CFC3
:1002E00081E3AACF81E08A83DF91CF911F91FF90B4
:1002F000EF900895FC01108224E030E032832183E6
:10030000089529B130E0FC01418152812423352335
:10031000232B81F0EFE1FEE43197F1F700C00000FC
:1003200029B130E0FC01818192812823392381E0C9
:10033000232B09F480E00895F8948FEF84B9E89AAC
:10034000E9E6F0E080818160808378940895FC0183
:1003500080810895FC01818192810895089580EA49
:10036000809300011092B90080E28093B800089554
:1003700020E8FC0120830C94AF01982F937089131F
:1003800005C0880F806A8093000108958FEF08955B
:1003900094EA24E89093BC008091BC0087FFFCCFD6
:1003A000809100018093BB002093BC008091BC0031
:1003B00087FFFCCF8091B900883161F784EA809390
:1003C000BC008091BC0087FFFCCF8091000180932E
:1003D000BB0084E88093BC008091BC0087FFFCCF09
:1003E0007093BB0084E88093BC008091BC0087FFC1
:1003F000FCCF6093BB0084E88093BC008091BC007C
:1004000087FFFCCF8091BC0087FFFCCF84EA8093FC
:10041000BC008091BC0087FFFCCF809100018F5F02
:100420008093BB0084E88093BC008091BC0087FF70
:10043000FCCF84E88093BC008091BC0087FFFCCF98
:100440008091BB00FA01808384E98093BC0080E046
:10045000089594EA34E89093BC008091BC0087FF33
:10046000FCCF809100018093BB003093BC00809151
:10047000BC0087FFFCCF8091B900883161F784EA26
:100480008093BC008091BC0087FFFCCF809100016D
:100490008093BB0084E88093BC008091BC0087FF00
:1004A000FCCF7093BB0084E88093BC008091BC00BB
:1004B00087FFFCCF6093BB0084E88093BC008091F1
:1004C000BC0087FFFCCF84EA8093BC008091BC0015
:1004D00087FFFCCF809100018F5F8093BB0084E891
:1004E0008093BC008091BC0087FFFCCFFA0184ECB4
:1004F000222371F0213009F484E88093BC009091AC
:10050000BC0097FFFCCF9091BB0091932150F0CF9E
:1005100084E98093BC0080E0089594EA24E89093F5
:10052000BC008091BC0087FFFCCF809100018093CC
:10053000BB002093BC008091BC0087FFFCCF809162
:10054000B900883161F784EA8093BC008091BC00D7
:1005500087FFFCCF809100018093BB0084E88093EB
:10056000BC008091BC0087FFFCCF7093BB0084E887
:100570008093BC008091BC0087FFFCCF6093BB00E0
:1005800084E88093BC008091BC0087FFFCCF40933F
:10059000BB0084E88093BC008091BC0087FFFCCF47
:1005A00084E98093BC0080E00895260F372F311D29
:1005B000FC0180818150990B862B972B28173907D6
:1005C00018F09C012F5F3F4F822F861B24EA34E8EE
:1005D0002093BC009091BC0097FFFCCF909100014C
:1005E0009093BB003093BC009091BC0097FFFCCF70
:1005F0009091B900983161F794EA9093BC00909182
:10060000BC0097FFFCCF909100019093BB0094E851
:100610009093BC009091BC0097FFFCCF7093BB00FF
:1006200094E89093BC009091BC0097FFFCCF60933E
:10063000BB0094E89093BC009091BC0097FFFCCF66
:10064000FA01982F24E8992359F031913093BB0097
:100650002093BC003091BC0037FFFCCF9150F3CF0A
:1006600094E99093BC000895CF92DF92EF92FF92AD
:100670000F931F93CF936C017B018A01C22F2C2F04
:10068000A801B701C6010E94D502282F30E0E20E72
:10069000F31EC81B020F131FC111F1CF80E0CF91D1
:1006A0001F910F91FF90EF90DF90CF90089594B538
:1006B000926094BD94B5906494BD95B5916095BDDC
:1006C00087BD08951F920F920FB60F9211242F939A
:1006D0003F934F935F936F937F938F939F93AF93CA
:1006E000BF93EF93FF9380910201909103010196D4
:1006F0009093030180930201209106012223E9F0E7
:100700000897D9F48FE091E00E94870081E090E0A3
:100710009093030180930201FF91EF91BF91AF91FC
:100720009F918F917F916F915F914F913F912F9109
:100730000F900FBE0F901F90189584E091E0E4CFCA
:100740001F920F920FB60F9211242F933F934F9346
:100750005F936F937F938F939F93AF93BF93EF9329
:10076000FF938BE091E00E9481018823A1F081E05A
:10077000809307018091090190910A0101968A30C6
:100780009105DCF490930A01809309016AEF84E0FB
:1007900091E00E946E00E09AFF91EF91BF91AF91BE
:1007A0009F918F917F916F915F914F913F912F9189
:1007B0000F900FBE0F901F90189581E090E0E2CF50
:1007C0002FEF30E0FC013183208308951092C500A3
:1007D0008FEC8093C4001092C00088E18093C10028
:1007E00086E08093C20008958091C00085FFFCCF11
:1007F0006093C60008958091C00087FFFCCF809170
:10080000C6000895EF92FF920F931F93CF93DF934B
:1008100000D0CDB7DEB78C01FC0180818AB9C80158
:100820000E94E603CE0102960E94B80170E060E0EB
:1008300089818F3F99F07B01FFEFEF1AFF0AAE012C
:100840004F5F5F4FCE0102960E94C80169816F3FE2
:1008500019F0C8010E94F403B701EACFCE01029655
:100860000E94AE010F900F90DF91CF911F910F91D9
:10087000FF90EF90089510927C0086E880937A00B4
:10088000089510927A00089580917C00807E809374
:100890007C0080917C006770682B60937C00809165
:1008A0007A00806480937A0080917A0084FFFCCF84
:1008B00080917A00806180937A00209178009091F5
:1008C0007900892F90E0982F8827820F911D089535
:1008D0000895443451F130F44234B9F0F0F4413425
:1008E00061F00895423689F018F4413631F00895E8
:1008F000433699F04436C9F008958FEF81B901C0AD
:10090000660F2A95EAF762B908958FEF84B901C09E
:10091000660F2A95EAF765B908958FEF87B901C088
:10092000660F2A95EAF768B908958FEF8AB901C072
:10093000660F2A95EAF76BB90895CF93DF93EC0120
:100940000E946A00CE0107960E947A01CE010A96A3
:100950000E943B041B821A821D821C821C861B86FD
:100960001E82DF91CF910895FC01828193810895C9
:10097000FC018481958108951AB8089561E00A9672
:100980000E94440421E08C3B924008F020E0822F3A
:100990000895CF92DF92EF92FF920F931F93CF9320
:1009A000DF93CDB7DEB768970FB6F894DEBF0FBE02
:1009B000CDBF8C01C8010E94BE048823D9F3F80181
:1009C00086818111F7CF868181116FC06E01F1E0C0
:1009D000CF1AD108EE24EA94FE2C8FEFE816F80621
:1009E00009F04DC0C8010E94BE048111FBCFFFEF8A
:1009F000EF1AFF0A82E0C80ED11CECE0EE16F104FB
:100A000061F7F80122813381FE01319690E080E0A8
:100A100041915191082E02C0440F551F0A94E2F7EC
:100A2000240F351F01968730910591F7F801338324
:100A3000228324813581FE013F9690E080E0419140
:100A40005191082E02C0440F551F0A94E2F7240F5B
:100A5000351F01968530910591F7F8013583248380
:100A600068960FB6F894DEBF0FBECDBFDF91CF9171
:100A70001F910F91FF90EF90DF90CF900895C801E4
:100A80000E94BE048823D9F361E0C8010E946E0071
:100A9000C8010E94BE048111FBCFC8010E948100E1
:100AA00090E0F60191838083A2CFC8010E9481006B
:100AB0008823D9F3F801838594859383828381E029
:100AC00090E095838483CCCF0F931F93CF93DF93D4
:100AD00084E091E00E94ED008FE091E00E94C90463
:100AE0008FE091E00E94B404EC0111E0C130D10527
:100AF00051F101E012E0C230D10561F101E012E0F4
:100B0000C330D10509F440C011E0C430D10509F06B
:100B100055C012B92FEF84E39CE0215080409040F3
:100B2000E1F700C0000012B82FEF84E39CE02150F1
:100B300080409040E1F700C0000064E08CE191E06B
:100B40000E94F403E2CF12B961E08CE191E00E94CF
:100B5000F403CCCF02B92FEF84E39CE02150804016
:100B60009040E1F700C0000012B92FEF89E698E14C
:100B7000215080409040E1F700C0000062E08CE12D
:100B800091E00E94F403B7CF02B92FEF80E792E023
:100B9000215080409040E1F700C0000012B92FEFD3
:100BA00080E792E0215080409040E1F700C00000D3
:100BB00063E08CE191E00E94F403A2CF81E082B96E
:100BC0002FEF81E19AE7215080409040E1F700C08B
:100BD000000012B82FEF81E19AE721508040904049
:100BE000E1F700C0000060E08CE191E00E94F403B6
:100BF00090E080E0DF91CF911F910F9108958CE1FB
:100C000091E00E94E0038FE091E00E949D0484E067
:100C100091E00C94B30089E191E00C944104EE0F53
:100C2000FF1F0590F491E02D099410E0CFE3D0E090
:100C300004C0FE010E940F062196C034D107C9F7F7
:040C4000F894FFCF56
:020C4400A0000E
:00000001FF
