:100000000C943E000C9448000C9448000C9448005A
:100010000C9448000C9448000C9448000C94480040
:100020000C9448000C9448000C9448000C94480030
:100030000C9448000C9448000C9448000C94480020
:100040000C9448000C9448000C9448000C94480010
:100050000C9448000C9448000C9448000C94480000
:100060000C9448000C9448000C9448000C944800F0
:100070000C9448000C9448000C94480011241FBEB6
:10008000CFEFD8E0DEBFCDBF0E94BC000C940202CF
:100090000C9400002FEF30E0FC01318320838FEFC0
:1000A0008AB9109289001092880010928B001092E9
:1000B0008A00E0E8F0E08081816A8083E1E8F0E096
:1000C000808182608083109282000895CF93DF93B5
:1000D0006F3F710510F06EEF70E0EA014F3F510580
:1000E00010F0CEEFD0E0223089F138F4222389F0ED
:1000F000213041F1DF91CF9108952330A1F12430D7
:10010000C9F788E08BB92BB9709389006093880098
:1001100025C088E08BB984E08BB990E080E00E9434
:10012000070123E333E343E75FE30E946D010E948D
:10013000D8007093890060938800D0938B00C0939F
:100140008A00D8CF87EF8BB98BEFE6CF88E08BB9E9
:1001500084E08BB9109289001092880010928B0075
:1001600010928A00C7CF88E08BB984E08BB91092D7
:10017000890010928800E1CFCF93DF9300D0CDB7F4
:10018000DEB7CE0101960E944A0020E046E950E029
:1001900066E970E0CE0101960E9466002FEF89E6C5
:1001A00098E1215080409040E1F700C00000EDCF81
:1001B0000E944C0188F09F5798F0B92F9927B751AA
:1001C000B0F0E1F0660F771F881F991F1AF0BA95FB
:1001D000C9F714C0B13091F00E946601B1E00895F2
:1001E0000C946601672F782F8827B85F39F0B93FE4
:1001F000CCF3869577956795B395D9F73EF49095AE
:100200008095709561957F4F8F4F9F4F0895E8942B
:1002100009C097FB3EF490958095709561957F4F4E
:100220008F4F9F4F9923A9F0F92F96E9BB279395FC
:10023000F695879577956795B795F111F8CFFAF40C
:10024000BB0F11F460FF1BC06F5F7F4F8F4F9F4F3D
:1002500016C0882311F096E911C0772321F09EE89B
:10026000872F762F05C0662371F096E8862F70E001
:1002700060E02AF09A95660F771F881FDAF7880FDB
:100280009695879597F9089557FD9058440F551FF7
:1002900059F05F3F71F04795880F97FB991F61F008
:1002A0009F3F79F087950895121613061406551F7F
:1002B000F2CF4695F1DF08C0161617061806991FEB
:1002C000F1CF86957105610508940895E894BB27E0
:1002D00066277727CB0197F908950E9480010C9437
:1002E000F1010E94E30138F00E94EA0120F0952319
:1002F00011F00C94DA010C94E00111240C946701C4
:100300000E94440170F3959FC1F3950F50E0551F73
:10031000629FF001729FBB27F00DB11D639FAA275A
:10032000F00DB11DAA1F649F6627B00DA11D661FA9
:10033000829F2227B00DA11D621F739FB00DA11DCA
:10034000621F839FA00D611D221F749F3327A00D84
:10035000611D231F849F600D211D822F762F6A2F20
:1003600011249F5750409AF0F1F088234AF0EE0F85
:10037000FF1FBB1F661F771F881F91505040A9F7B2
:100380009E3F510580F00C94DA010C9467015F3FA9
:10039000E4F3983ED4F3869577956795B795F795EE
:1003A000E7959F5FC1F7FE2B880F911D9695879566
:1003B00097F9089597F99F6780E870E060E00895E5
:1003C0009FEF80EC089500240A941616170618066D
:1003D0000906089500240A94121613061406050649
:1003E0000895092E0394000C11F4882352F0BB0FDA
:1003F00040F4BF2B11F460FF04C06F5F7F4F8F4F3D
:080400009F4F0895F894FFCF0F
:00000001FF
