:100000000C943E000C9448000C9448000C9448005A
:100010000C9448000C9448000C9448000C94480040
:100020000C9448000C9448000C9448000C94480030
:100030000C9448000C9448000C9448000C94480020
:100040000C9448000C9448000C9448000C94480010
:100050000C9448000C9448000C9448000C94480000
:100060000C9448000C9448000C9448000C944800F0
:100070000C9448000C9448000C94480011241FBEB6
:10008000CFEFD8E0DEBFCDBF0E9459000C948A00AC
:100090000C9400004A9B0BC08FE19EE40197F1F79E
:1000A00000C0000089B182FB882780F9089580E0B4
:1000B00008958FEF81B91AB8C2E0D1E0C2B90E94A9
:1000C0004A008823D9F3D2B98FE295E70197F1F777
:1000D00000C00000C2B98FE097E20197F1F700C0BD
:1000E00000000E944A008111EECFD2B90E944A005E
:1000F0008823D9F3C2B90E944A008111FBCF12B8FC
:100100000E944A008823D9F3D2B90E944A00811183
:08011000FBCFD4CFF894FFCF20
:00000001FF
