:100000000C943E000C9470000C9450000C94500022
:100010000C9450000C9450000C9450000C94500020
:100020000C9450000C9450000C9450000C94500010
:100030000C9450000C9461000C9450000C945000EF
:100040000C9450000C9450000C9450000C945000F0
:100050000C9450000C9450000C9450000C945000E0
:100060000C9450000C9450000C9450000C945000D0
:100070000C9450000C9450000C94500011241FBE9E
:10008000CFEFD8E0DEBFCDBF21E0A0E0B1E001C0FE
:100090001D92A430B207E1F70E94DD000C94FD0030
:1000A0000C9400008FE19EE40197F1F700C000007E
:1000B0004A9903C010920101089581E080930101E3
:1000C00008951F920F920FB60F9211248F9381E023
:1000D000809303018F910F900FBE0F901F90189582
:1000E0001F920F920FB60F9211242F933F934F93AD
:1000F0005F936F937F938F939F93AF93BF93EF9390
:10010000FF930E94520080910101882339F0809171
:100110000001882319F081E080930201E09AFF91A9
:10012000EF91BF91AF919F918F917F916F915F916F
:100130004F913F912F910F900FBE0F901F901895E8
:1001400021E020930001109203011092850010928B
:1001500084009093890080938800E0E8F0E080813B
:1001600080648083E1E8F0E0808185608083109284
:100170008200EFE6F0E08081826080830895F89449
:100180008FEF84B9E89AE9E6F0E0808181608083AE
:100190007894089580910301811104C08091020137
:1001A0008823C1F3F89480910201811103C081E09A
:1001B00085B9089582E085B908950E94BF002FEFA8
:1001C00083E294EF215080409040E1F700C00000AE
:1001D00081E085B92FEF80E792E021508040904088
:1001E000E1F700C0000015B884E89EE10E94A0007D
:0E01F0000E94CA0090E080E00895F894FFCFCE
:00000001FF
