:100000000C943E000C9453000C9453000C94530039
:100010000C9453000C9453000C9453000C94530014
:100020000C9453000C9453000C9453000C94530004
:100030000C9453000C9453000C9453000C945300F4
:100040000C9453000C9453000C9453000C945300E4
:100050000C9453000C9453000C9453000C945300D4
:100060000C9453000C9453000C9453000C945300C4
:100070000C9453000C9453000C94530011241FBE95
:10008000CFEFD8E0DEBFCDBF11E0A0E0B1E0EAEDF8
:10009000F5E002C005900D92A230B107D9F70E9499
:1000A000D7020C94EB020C940000FC011182108228
:1000B0000895CF92DF92EF92FF920F931F93CF9309
:1000C000DF9300D01F92CDB7DEB76C01CE0103964F
:1000D0000E94DD00CE0103960E94D400CE0101965D
:1000E0000E947C02CE0101960E948202CE010196FE
:1000F0000E949702F82E482F70E060E0CE01039630
:100100000E94B20100E01F2DF6011082F182CE01A3
:1001100001960E949702F82E8FE097E20197F1F77F
:1001200000C000004F2D70E060E0CE0103960E94F9
:10013000B201EFE0F7E23197F1F700C000000F29BC
:1001400082E0E82EF12CCE01E016F106C8F401960B
:100150000E949702EFE0F7E23197F1F700C000004C
:10016000482FB701CE0103960E94B2018FE097E2BB
:100170000197F1F700C000009FEFE91AF90AE3CFF9
:1001800003960E94D3000F900F900F90DF91CF91B4
:100190001F910F91FF90EF90DF90CF900895FC0199
:1001A000808191810895089580EA809300011092E2
:1001B000B90080E28093B800089520E8FC01208314
:1001C0000C94D400982F9370891305C0880F806A0F
:1001D0008093000108958FEF089594EA24E89093A6
:1001E000BC008091BC0087FFFCCF80910001809310
:1001F000BB002093BC008091BC0087FFFCCF8091A6
:10020000B900883161F784EA8093BC008091BC001A
:1002100087FFFCCF809100018093BB0084E880932E
:10022000BC008091BC0087FFFCCF7093BB0084E8CA
:100230008093BC008091BC0087FFFCCF6093BB0023
:1002400084E88093BC008091BC0087FFFCCF809144
:10025000BC0087FFFCCF84EA8093BC008091BC0087
:1002600087FFFCCF809100018F5F8093BB0084E803
:100270008093BC008091BC0087FFFCCF84E8809312
:10028000BC008091BC0087FFFCCF8091BB00FA01CD
:10029000808384E98093BC0080E0089594EA34E888
:1002A0009093BC008091BC0087FFFCCF809100013F
:1002B0008093BB003093BC008091BC0087FFFCCFD3
:1002C0008091B900883161F784EA8093BC00809105
:1002D000BC0087FFFCCF809100018093BB0084E8C5
:1002E0008093BC008091BC0087FFFCCF7093BB0063
:1002F00084E88093BC008091BC0087FFFCCF6093B2
:10030000BB0084E88093BC008091BC0087FFFCCFD9
:1003100084EA8093BC008091BC0087FFFCCF809171
:1003200000018F5F8093BB0084E88093BC008091C4
:10033000BC0087FFFCCFFA0184EC222371F021304E
:1003400009F484E88093BC009091BC0097FFFCCF37
:100350009091BB0091932150F0CF84E98093BC0031
:1003600080E0089594EA24E89093BC008091BC005A
:1003700087FFFCCF809100018093BB002093BC00DD
:100380008091BC0087FFFCCF8091B900883161F774
:1003900084EA8093BC008091BC0087FFFCCF8091F1
:1003A00000018093BB0084E88093BC008091BC0076
:1003B00087FFFCCF7093BB0084E88093BC008091E2
:1003C000BC0087FFFCCF6093BB0084E88093BC0037
:1003D0008091BC0087FFFCCF4093BB0084E88093F2
:1003E000BC008091BC0087FFFCCF84E98093BC00F7
:1003F00080E00895260F372F311DFC018081815048
:10040000990B862B972B2817390718F09C012F5F23
:100410003F4F822F861B24EA34E82093BC00909142
:10042000BC0097FFFCCF909100019093BB003093EC
:10043000BC009091BC0097FFFCCF9091B90098311F
:1004400061F794EA9093BC009091BC0097FFFCCFB9
:10045000909100019093BB0094E89093BC00909120
:10046000BC0097FFFCCF7093BB0094E89093BC0056
:100470009091BC0097FFFCCF6093BB0094E89093F1
:10048000BC009091BC0097FFFCCFFA01982F24E8A4
:10049000992359F031913093BB002093BC003091E7
:1004A000BC0037FFFCCF9150F3CF94E99093BC0090
:1004B0000895CF92DF92EF92FF920F931F93CF9305
:1004C0006C017B018A01C22F2C2FA801B701C60144
:1004D0000E94FA01282F30E0E20EF31EC81B020F23
:1004E000131FC111F1CF80E0CF911F910F91FF90A9
:1004F000EF90DF90CF9008952FEF30E0FC01318333
:10050000208308951092C5008FEC8093C400109250
:10051000C00088E18093C10086E08093C200089506
:100520008091C00085FFFCCF6093C6000895809144
:10053000C00087FFFCCF8091C6000895EF92FF9224
:100540000F931F93CF93DF9300D0CDB7DEB78C010D
:10055000FC0180818AB9C8010E948202CE01029604
:100560000E94DD0070E060E089818F3F99F07B019F
:10057000FFEFEF1AFF0AAE014F5F5F4FCE01029609
:100580000E94ED0069816F3F19F0C8010E9490023E
:10059000B701EACFCE0102960E94D3000F900F90D0
:1005A000DF91CF911F910F91FF90EF900895CF931E
:1005B000DF9300D0CDB7DEB7CE0101960E94550083
:1005C000CE0101960E94590090E080E00F900F90BC
:0A05D000DF91CF910895F894FFCF5A
:0205DA00A0007F
:00000001FF
