:100000000C943E000C9448000C9448000C9448005A
:100010000C9448000C9448000C9448000C94480040
:100020000C9448000C9448000C9448000C94480030
:100030000C9448000C9448000C9448000C94480020
:100040000C9448000C9448000C9448000C94480010
:100050000C9448000C9448000C9448000C94480000
:100060000C9448000C9448000C9448000C944800F0
:100070000C9448000C9448000C94480011241FBEB6
:10008000CFEFD8E0DEBFCDBF0E9480000C94D5003A
:100090000C94000030E020E0281739073CF442E0DF
:1000A0004A95F1F700C02F5F3F4FF6CF0895AF920A
:1000B000BF92DF92EF92FF920F931F93CF93DF9344
:1000C0007C015A01D0E0C0E0DD24D3948B01081BF1
:1000D000190BCA15DB0554F4D5B8C7010E944A00B4
:1000E00015B8C8010E944A002196F3CFDF91CF9145
:1000F0001F910F91FF90EF90DF90BF90AF90089508
:100100008FEF84B9C1E0C5B948E750E06AE171E416
:1001100090E080E00E94570048E750E06AE171E417
:1001200086E490E10E94570048E750E06AE171E4FC
:100130008DE890E20E94570048E750E06AE171E4E0
:1001400084ED90E30E94570048E750E06AE171E4D3
:100150008AE191E40E94570040E253E064EC79E0C8
:1001600090E080E00E94570040E253E064EC79E0C8
:1001700081E792E00E94570040E253E064EC79E0AE
:1001800082EE94E00E94570040E253E064EC79E094
:1001900083E597E00E94570040E253E064EC79E089
:0E01A00084EC99E00E945700AECFF894FFCF98
:00000001FF
