:100000000C943E000C9452000C9450000C94500040
:100010000C9450000C9450000C9450000C94500020
:100020000C9450000C9450000C9450000C94500010
:100030000C9450000C9450000C9450000C94500000
:100040000C9450000C9450000C9450000C945000F0
:100050000C9450000C9450000C9450000C945000E0
:100060000C9450000C9450000C9450000C945000D0
:100070000C9450000C9450000C94500011241FBE9E
:10008000CFEFD8E0DEBFCDBF21E0A0E0B1E001C0FE
:100090001D92A130B207E1F70E947F000C94250168
:1000A0000C9400001F920F920FB60F9211248F93A1
:1000B0009F938FE59AEE0197F1F700C000008091C1
:1000C0000001833051F410920001E09A9F918F91CA
:1000D0000F900FBE0F901F901895809100018F5FB9
:1000E00080930001F2CFF8948FEF81B91AB8E89AA3
:1000F000E9E6F0E0808181608083789408950E9431
:10010000730030E020E0F2E0E1E0C3E00AE010E05C
:10011000809100018130B1F198F1823009F444C03E
:100120008330B1F78FEF93EDA0E381509040A04072
:10013000E1F700C00000C901B8010E94FD0090E095
:1001400080E06817790709F44AC045E050E0F2B949
:10015000BFEFD0E7A2E0B150D040A040E1F700C02F
:10016000000012B8BFEFD0E7A2E0B150D040A040ED
:10017000E1F700C000004150510949F70196E1CF75
:1001800012B8C6CF2837310564F4265F3F4F4FEFD2
:1001900059E668E1415050406040E1F700C000007E
:1001A000B7CFF0930001B4CF85E090E0E2B9AFE7BC
:1001B000B8E3D1E0A150B040D040E1F700C000006A
:1001C00012B84FE758E361E0415050406040E1F71A
:1001D00000C00000019751F7C093000199CFE2B928
:1001E000BFEFD9E648E1B150D0404040E1F700C050
:1001F000000012B8109200018BCF97FB072E16F467
:10020000009407D077FD09D00E94110107FC05D0AA
:100210003EF4909581959F4F0895709561957F4F1D
:100220000895AA1BBB1B51E107C0AA1FBB1FA6173D
:10023000B70710F0A61BB70B881F991F5A95A9F78F
:0E02400080959095BC01CD010895F894FFCFF4
:00000001FF
