:100000000C943E000C9448000C9448000C9448005A
:100010000C9448000C9448000C9448000C94480040
:100020000C9448000C9448000C9448000C94480030
:100030000C9448000C9448000C9448000C94480020
:100040000C9448000C9448000C9448000C94480010
:100050000C9448000C9448000C9448000C94480000
:100060000C9448000C9448000C9448000C944800F0
:100070000C9448000C9448000C94480011241FBEB6
:10008000CFEFD8E0DEBFCDBF0E946E000C94BC0065
:100090000C9400008FEF8AB91092850010928400B2
:1000A000089590E0909389008093880070E07093A9
:1000B0008B0060938A00E0E8F0E0808181608083BB
:1000C000808180688083808180628083E1E8F0E0C5
:1000D0008081826080831092820008950E944A008D
:1000E00060E080E00E9451002FEF83ED90E321500B
:1000F00080409040E1F700C000006FE38FE30E9472
:1001000051002FEF83ED90E3215080409040E1F7C4
:1001100000C000006FE78FE70E9451002FEF83EDD2
:1001200090E3215080409040E1F700C000006FEB69
:100130008FEB0E9451002FEF83ED90E32150804020
:100140009040E1F700C000006FEF8FEF0E94510078
:100150002FEF83ED90E3215080409040E1F700C005
:1001600000001BB82FEF83ED90E3215080409040BA
:0C017000E1F700C00000B4CFF894FFCF0E
:00000001FF
