:100000000C943E000C9448000C9448000C9448005A
:100010000C9448000C9448000C9448000C94480040
:100020000C9448000C9448000C9448000C94480030
:100030000C9448000C9448000C9448000C94480020
:100040000C9448000C9448000C9448000C94480010
:100050000C9448000C9448000C9448000C94480000
:100060000C9448000C9448000C9448000C944800F0
:100070000C9448000C9448000C94480011241FBEB6
:10008000CFEFD8E0DEBFCDBF0E944A000C946200E3
:100090000C9400008FEF84B991E082E015B84A9B80
:1000A000FDCFEFE3FCE93197F1F700C000004A9B78
:1000B000F5CF95B9EFE3FCE93197F1F700C0000007
:0800C00085B9EFCFF894FFCFE2
:00000001FF
