:100000000C943E000C94B9000C9450000C945000D9
:100010000C9450000C9450000C9450000C94500020
:100020000C9450000C9450000C9450000C94500010
:100030000C9450000C9450000C9450000C94500000
:100040000C9450000C9450000C9450000C945000F0
:100050000C9450000C9450000C9450000C945000E0
:100060000C9450000C9450000C9450000C945000D0
:100070000C9450000C9450000C94500011241FBE9E
:10008000CFEFD8E0DEBFCDBF21E0A0E0B1E001C0FE
:100090001D92A230B207E1F70E94EB000C94F2002F
:1000A0000C9400008FE19EE40197F1F700C000007E
:1000B0004A9903C010920101089581E080930101E3
:1000C0000895CF93DF93809100018230E1F180F0B9
:1000D000853009F443C0863009F448C0843031F5D6
:1000E00080910101882311F185E0809300011EC0F9
:1000F0008823F9F08130D1F480910101882399F0AF
:10010000D1E0C2E0D8B92FEF84E39CE021508040D9
:100110009040E1F700C00000C8B90E9452008091F1
:1001200001018111EFCF82E080930001DF91CF9137
:10013000089581E088B9809101018823B9F381E0B5
:1001400080930001F3CF80910101811103C082E00F
:1001500088B9ECCF83E080930001E8CF8091010162
:100160008111E4CF86E080930001E0CF109200017E
:10017000DDCF1F920F920FB60F9211242F933F9352
:100180004F935F936F937F938F939F93AF93BF939F
:10019000EF93FF930E9452000E946100E09AFF914A
:1001A000EF91BF91AF919F918F917F916F915F91EF
:1001B0004F913F912F910F900FBE0F901F90189568
:1001C000F8948FEF87B9E89AE9E6F0E080818160E2
:1001D00080837894089580EF8AB90E94E0000E949D
:0801E0006100FDCFF894FFCF90
:00000001FF
