:100000000C943E000C9448000C9448000C9448005A
:100010000C9448000C9448000C9448000C94480040
:100020000C9448000C9448000C9448000C94480030
:100030000C9448000C9448000C9448000C94480020
:100040000C9448000C9448000C9448000C94480010
:100050000C9448000C9448000C9448000C94480000
:100060000C9448000C9448000C9448000C944800F0
:100070000C9448000C9448000C94480011241FBEB6
:10008000CFEFD8E0DEBFCDBF0E944A000C949D00A8
:100090000C940000CF93DF931F92CDB7DEB711B859
:1000A0008FEF84B9CE0101960E94730012E004C064
:1000B000863F78F081E085B961E0CE0101960E942B
:1000C0007C0096958795969587958F3A88F715B910
:1000D000F3CF15B98FEC97E00197F1F700C000005E
:1000E00081E085B9E9CF10927C0086E880937A00A0
:1000F000089510927A000895ECE7F0E08081807E08
:10010000808380816770682B6083EAE7F0E08081FC
:1001100080648083808184FFFDCFEAE7F0E0808106
:10012000806180832091780090917900892F90E000
:0E013000982F8827820F911D0895F894FFCF15
:00000001FF
