:100000000C943E000C9453000C9453000C94530039
:100010000C9453000C9453000C9453000C94530014
:100020000C9453000C9453000C9453000C94530004
:100030000C9453000C9453000C9453000C945300F4
:100040000C9453000C9453000C9453000C945300E4
:100050000C9453000C9453000C9453000C945300D4
:100060000C9453000C9453000C9453000C945300C4
:100070000C9453000C9453000C94530011241FBE95
:10008000CFEFD8E0DEBFCDBF11E0A0E0B1E0E2E607
:10009000F1E002C005900D92A631B107D9F70E9498
:1000A0006B000C94AF000C9400001092C5008FEC14
:1000B0008093C4001092C00088E18093C10086E064
:1000C0008093C2000895E0ECF0E0908195FFFDCFB1
:1000D0008093C6000895DF92EF92FF920F931F93D3
:1000E000CF93DF93CDB7DEB765970FB6F894DEBF39
:1000F0000FBECDBF8FEF8AB90E94550085E1E0E0C9
:10010000F1E0DE01119601900D928A95E1F70F2E34
:10011000F4E6DF2EF02D7E0185E1E80EF11C03C030
:10012000DA94DD2061F08E010F5F1F4FF80181919D
:100130008F010E9463000E151F05C1F7F1CF90E0FB
:1001400080E065960FB6F894DEBF0FBECDBFDF919D
:10015000CF911F910F91FF90EF90DF900895F89449
:02016000FFCFCF
:100162004C6520726F626F7420656E20494E463175
:060172003930300A0000E4
:00000001FF
