:100000000C943E000C9450000C9450000C94500042
:100010000C9450000C9450000C9450000C94500020
:100020000C9450000C9450000C9450000C94500010
:100030000C9450000C9482000C9450000C945000CE
:100040000C9450000C9450000C9450000C945000F0
:100050000C9450000C9450000C9450000C945000E0
:100060000C9450000C9450000C9450000C945000D0
:100070000C9450000C9450000C94500011241FBE9E
:10008000CFEFD8E0DEBFCDBF21E0A0E0B1E001C0FE
:100090001D92A730B207E1F70E9400010C942D01D8
:1000A0000C9400004A9B0BC08FE19EE40197F1F78E
:1000B00000C000004A9B06C010920401089581E030
:1000C00080930401089521E020930301109206011A
:1000D000109285001092840090938900809388008C
:1000E000E0E8F0E0808180648083E1E8F0E08081F6
:1000F0008560808310928200EFE6F0E0808182606C
:10010000808308951F920F920FB60F9211248F9340
:1001100081E080930601109203018F910F900FBE32
:100120000F901F901895F8948FEF84B91AB8E9E6EC
:10013000F0E08081816080837894089510920601B8
:1001400083E49FE00E94630082E090910601911198
:1001500012C085B92FE738E351E0215030405040BC
:10016000E1F700C0000015B8EFE3FCE93197F1F7C3
:1001700000C00000EACFFFEF23ED30E3F150204054
:100180003040E1F700C0000030E020E041E0809125
:1001900001019091020197FD01969595879582172F
:1001A0009307BCF045B95FE78AE196E05150804083
:1001B0009040E1F700C0000015B8EFE7FAE156E023
:1001C000E150F0405040E1F700C000002F5F3F4F8A
:1001D000DECF82E085B98FEF99E6E8E1815090406B
:1001E000E040E1F700C0000015B81092060110923F
:1001F0000301109202011092010110920001089572
:100200000E949300C1E00E94520080910401882363
:10021000E9F0809101019091020189379105B4F4D0
:100220000E945200809103018111EFCF8DE093E095
:100230000E946300809101019091020101969093C8
:10024000020180930101C0930001DFCF8091000182
:0E0250008823C9F20E949E00D6CFF894FFCFFB
:00000001FF
